:100000000C9473040C949B040C949B040C949B041C
:100010000C949B040C949B040C949B040C949B04E4
:100020000C949B040C949B040C9451120C94C012DD
:100030000C949B040C949B040C949B040C949B04C4
:100040000C949B040C94BB150C949B040C949B0483
:100050000C943B150C949B040C949B040C94071279
:100060000C949B040C949B040C949B040C949B0494
:100070000C949B040C949B040C949B040C949B0484
:100080000C949B040C949B040C949B040C94F2140D
:100090000C949B040C949B040C949B040C949B0464
:1000A0000C949B040C949B040C949B044E6F742042
:1000B000617574686F72697A6564202100446562B5
:1000C0007567206C6576656C3A2000202B2B2B0021
:1000D0002052414D3A0020563A002B2B2B004176FE
:1000E00061696C61626C6520636F6D6D616E6473D4
:1000F0003A0052616D70696E672075703A20200079
:1001000052616D70696E6720646F776E3A202000CF
:100110006D730072616D705F74656D703A2000459B
:1001200052524F52206F6E6C7920323536206F72EA
:10013000203130323420737570706F7274656400D2
:100140005072657363616C65723A2020005072656D
:10015000636973696F6E2D72616D70696E6720756A
:10016000703A2020005072657363616C65723A20AA
:100170002000507265636973696F6E2D72616D70D6
:10018000696E6720646F776E3A2020007573696E20
:10019000672072616D705F74656D700050756C736F
:1001A000652074696D65206C6F6E67657220746878
:1001B000616E2000207573002070756C7365732C60
:1001C00020657665727920005573696E67205057F7
:1001D0004D2054696D65723320676976696E6720BA
:1001E00000443138383B7878202020202020202DF2
:1001F0002073656C6563742044313838206368610E
:100200006E6E656C2078782028312E2E38290053A8
:10021000484F434B3B6E6E283B797929202D204473
:1002200069676974696D6572207374696D756C694D
:10023000206E756D62657220286E6E292040696E91
:1002400074657276616C20313130307573204F5295
:10025000206164646974696F6E616C6C792073707D
:10026000656369667920696E74657276616C206277
:1002700065747765656E2070756C73657320287979
:10028000792920696E20757320283E31303030295D
:1002900020004B494C4C5F4420202020202020206F
:1002A0002D2073746F70206163746976697479208E
:1002B0006F66206469676974696D657200535441A3
:1002C0005455535F442020202020202D2063686552
:1002D000636B207768657468657220646967697408
:1002E000696D65722069732072756E6E696E670044
:1002F0002D2D2D2D2D2D2D2D2D2D2D2D2D2D2D2D2E
:100300002D2D2D2D2D2D2D2D2D2D2D004469676981
:1003100074696D65722072656C6174656420636FC9
:100320006D6D616E64733A00464C555348435443B7
:100330002020202020202D20726573657420637496
:100340006320616E6420636C656172206374635F17
:100350006461746120717565756500455845434356
:100360005443202020202020202D206578656375AF
:100370007465206374635F64617461207175657571
:1003800065207573696E6720707265636973652097
:1003900050574D004D4158435443202020202020E9
:1003A00020202D2072657475726E73206D61782027
:1003B0006E756D626572206F6620656E7472696518
:1003C0007320666F722043544320627566666572BF
:1003D000206261736564206F6E206269747769645E
:1003E000746829005155455259435443283B797943
:1003F00029202D20737461747573206F66207468D2
:1004000065206374635F64617461207175657565EF
:10041000202879793D3320746F2067657420616CE2
:100420006C20656E74726965732900206974656D4E
:1004300073004C4F41444354433B787820202020A4
:100440002D206164642070756C736520746F206367
:1004500074635F64617461207175657565202878C7
:100460007820696E206D7329202D7878206D656164
:100470006E732074656D7065726174757265206449
:10048000656372656173652C206D61782000494E4B
:1004900049544354433B7878202020202D20496E36
:1004A000697469616C697A6520636F6D706C6578D9
:1004B0002074696D6520636F75727365732028639E
:1004C00074635F646174612920776974682063795B
:1004D000636C6520787820696E206D732028353034
:1004E00030206D617829005354415254202020203F
:1004F00020202020202D2053656E642034306D7321
:100500002054544C2070756C736520746F20737484
:1005100061727420746865726D6F6465004D4F562A
:10052000453B5858202020202020202D204D6F763C
:10053000652074656D702075702F646F776E20660E
:100540006F72205858207573004B494C4C5F5420F3
:10055000202020202020202D2073746F70206163C4
:10056000746976697479206F6620746865726D6F3E
:100570006465005354415455535F5420202020207B
:10058000202D20636865636B2077686574686572E9
:1005900020746865726D6F64652069732072756E72
:1005A0006E696E67002D2D2D2D2D2D2D2D2D2D2DB0
:1005B0002D2D2D2D2D2D2D2D2D2D2D2D2D2D2D0098
:1005C000546865726D6F64652072656C61746564F2
:1005D00020636F6D6D616E64733A00474554494402
:1005E0002020202020202020202D2072657475726C
:1005F0006E206E616D65206F6620746865726D6F28
:10060000696E6F2066726F6D20454550524F4D00E8
:1006100053455449442020202020202020202D20F4
:10062000656E746572206E6577206E616D652066FB
:100630006F7220746865726D6F696E6F2C207361C4
:10064000766564207065726D616E656E746C79207C
:10065000696E20454550524F4D004B494C4C20206F
:1006600020202020202020202D2073746F702061F6
:100670006C6C20616374697669747920287468658C
:10068000726D6F646520616E642064696769746966
:100690006D65722920005354415455532020202069
:1006A000202020202D20636865636B2077686574A7
:1006B00068657220616E797468696E672028746855
:1006C00065726D6F6465206F722064696769746913
:1006D0006D6572292069732072756E6E696E670090
:1006E00048454C50202020202020202020202D2054
:1006F0005468697320636F6D6D616E640044454298
:1007000055473B58582020202020202D2053657429
:100710002064656275672073746174652028303ABF
:10072000204F4646292028313A204F4E292900479C
:10073000455454494D45202020202020202D20477D
:1007400065742041726475696E6F2074696D6520EF
:10075000696E206D730044494147202020202020ED
:10076000202020202D2047657420646961676E6F0A
:100770007374696373005645522020202020202086
:10078000202020202D205072696E742076657273AF
:10079000696F6E002D2D2D2D2D2D2D2D2D2D2D2DF7
:1007A0002D2D004D69736320636F6D6D616E6473F1
:1007B0003A002A2A2A2A2A2A2A2A2A2A2A2A2A2AB3
:1007C0002A2A2A2A2A2A2A2A2A2A2A2A2A2A2A2A89
:1007D0002A2A2A2A2A2A2A2A004F6E6C7920636F35
:1007E0006D70617469626C652077697468205573F7
:1007F00065546865726D6F696E6F5054422E6D005E
:100800004E616D653A2000546865726D6F696E6F58
:10081000200020004F4B20636F6465733A00200076
:100820004572726F7220636F6465733A004354437C
:10083000206D617820656E74726965733A202000BE
:1008400043544320626974733A20200020006E5F95
:100850006374633A20006374635F62696E5F6D73F3
:100860003A20002000080B000202020000090400E8
:10087000000102020000052400100105240101010D
:100880000424020605240600010705810310004028
:1008900009040100020A00000007050202400000EE
:1008A000070583024000000403090412010002EF5F
:1008B000020140FB1F0023000101020301506F6C85
:1008C0006F6C7520436F72706F726174696F6E0028
:1008D000506F6C6F6C7520412D53746172203332F0
:1008E00055340000271611241FBECFEFDAE0DEBF1B
:1008F000CDBF12E0A0E0B1E0E8E5F2E402C005906F
:100900000D92A83EB107D9F727E0A8EEB2E001C0EA
:100910001D92A439B207E1F714E0C3E7D4E004C0A4
:100920002197FE010E946D1DC237D107C9F70E94B1
:1009300053160C942A210C940000FC01809113079B
:10094000882311F13FB7F89482E08093E900209169
:10095000F200822F90E01816190614F481E090E05E
:10096000882339F0289844E6409312074091F1001B
:100970004083222339F02091F200211103C02BE69D
:100980002093E8003FBF08958FEF9FEF0895CF9227
:10099000DF92EF92FF922091090730910A07C090F1
:1009A0000B07D0900C07F12CE12C43E0CC0CDD1CA4
:1009B000EE1CFF1C4A95D1F740910D07420F532FB3
:1009C000511D70E060E0C416D506E606F70608F48F
:1009D00058C0F90133E0F695E7953A95E1F7409173
:1009E0000E0750910F0784239523A0910707B0911C
:1009F0000807AE0FBF1F3C912770622F70E0AC015B
:100A000001C0440F2A95EAF7232F242B2C93209121
:100A10000D07260F372F311D29303105ACF09F010E
:100A20002F5F3F4FE0910707F0910807E20FF31F98
:100A3000208148E050E0461B570B02C096958795F1
:100A40004A95E2F7822B808380910D072091090758
:100A500030910A07820F932F911D90930A0780937C
:100A60000907809110079091110701969093110743
:100A70008093100790E080E0FF90EF90DF90CF90A0
:100A800008958FEF9FEFF8CFEF92FF920F931F9390
:100A9000CF93DF93C0910907D0910A07BE0183E08D
:100AA000769567958A95E1F7409107075091080779
:100AB000FA01E60FF71F80812C2F2770E22EF12C10
:100AC00090E002C0959587952A95E2F7092E000CD3
:100AD000AA0BBB0B20910D0730E08701020F131FFB
:100AE00009301105C4F06F5F7F4F460F571FFA01A1
:100AF000408150E070E060E008E010E00E191F094E
:100B000004C0440F551F661F771F0A95D2F7842B28
:100B1000952BA62BB72BE0910E07F0910F07AF0195
:100B200070E060E08E239523A623B723B9016150BE
:100B3000710941E050E002C0440F551F6A95E2F789
:100B400070E060E0482359236A237B23452B462B22
:100B5000472B29F0E095F095AF018E2B952B2C0FAC
:100B60003D1F30930A0720930907DF91CF911F9112
:100B70000F91FF90EF9008952FB7F89483E0809342
:100B8000E9009091E800892F807295FF04C0909150
:100B9000F20080E4891B2FBF08958091FF06811128
:100BA0000DC082E08093FB0684E08093FC061092E7
:100BB000FE061092FD0681E08093FF068BEF96E023
:100BC00008953FB7F8948091F7069091F806A091A8
:100BD000F906B091FA0626B5A89B05C02F3F19F07B
:100BE0000196A11DB11D3FBFBA2FA92F982F8827AD
:100BF000BC01CD01620F711D811D911D42E0660F88
:100C0000771F881F991F4A95D1F708958F929F9259
:100C1000AF92BF92CF92DF92EF92FF924B015C01B5
:100C20000E94E1056B017C010E94E1056C197D09C0
:100C30008E099F09683E734081059105A8F321E064
:100C4000821A9108A108B10888EEC80E83E0D81E68
:100C5000E11CF11C81149104A104B10429F7FF9057
:100C6000EF90DF90CF90BF90AF909F908F900895BE
:100C70004091E9065091EA062091E7063091E80696
:100C800042175307B4F49091E8009570E1F3909106
:100C9000E80092FD19C08093F1008091E9069091DF
:100CA000EA0601968F739927892B19F48EEF8093AA
:100CB000E8008091E9069091EA0601969093EA0691
:100CC0008093E90681E0089580E00895EF92FF9215
:100CD0000F931F93CF93DF93F82E192FE62E042F37
:100CE00081E0860F880F0E94380683E00E94380654
:100CF000CF2DD12FEC0EFD2EF11CCE15DF05B9F056
:100D000007FF13C0FE0184910E943806182F80E06F
:100D10000E943806812321968111EFCFDF91CF9178
:100D20001F910F91FF90EF9008958881EDCF81E0A2
:100D3000F5CFDF92EF92FF920F931F93CF93DF9344
:100D4000D82E8A01EB017B01E40EF51ECE15DF05DE
:100D500059F0D7FE12C0FE0184910E9438062196F8
:100D60008111F4CF0FEF1FEFC801DF91CF911F91D9
:100D70000F91FF90EF90DF9008958881EECF0F9351
:100D80001F93CF93DF931F92CDB7DEB782E08983A5
:100D900042E450E065E678E080E80E9499060E940F
:100DA000CD05DC0112960D911C910115110589F0FC
:100DB000D801ED91FC910280F381E02DBE016F5FBF
:100DC0007F4FC801099597FD04C0F8010085118582
:100DD000ECCF89810F90DF91CF911F910F910895F2
:100DE000615030F02091F100FC0120830196F8CF92
:100DF000289884E68093120708958F929F92AF926D
:100E0000BF92CF92DF92EF92FF920F931F93CF93F7
:100E1000DF936C017B018A0180910B01882309F427
:100E20005CC080911307882309F457C08091ED06B8
:100E300080FF05C08091E00082608093E000E801BF
:100E4000B12C8AEFA82E93E0892E2AE3922E2097C8
:100E500011F4BB20D9F10E94BC0581110AC0AA94EB
:100E6000AA20D9F161E070E080E090E00E940606DF
:100E7000EECF8C171D0611F00CF08C2F9FB7F89455
:100E80008092E9002091E80025FD02C09FBFDFCFDE
:100E9000282F30E0C21BD30BF701815020F0419185
:100EA0004093F100FACFE20EF31EBB2021F09092A6
:100EB000E800B12CEBCF8091E80085FDE7CF909260
:100EC000E800BB24B394209709F3F3CF5D9884E640
:100ED0008093EC06101611063CF081E090E0F601DC
:100EE0009383828310E000E0C801DF91CF911F91CE
:100EF0000F91FF90EF90DF90CF90BF90AF909F90B9
:100F00008F900895CF93DF931F92CDB7DEB769839B
:100F1000DC01ED91FC910280F381E02D41E050E095
:100F2000BE016F5F7F4F09950F90DF91CF910895BC
:100F30000F931F93CF93DF938C01D0E0C0E0F801B3
:100F4000EC0FFD1F6491662341F084E197E00E945D
:100F50008207892B11F02196F2CFCE01DF91CF913C
:100F60001F910F91089583E08093E9008091F20032
:100F7000882319F08AE38093E80008950E94BC0555
:100F800090E00895CF93DF931F92CDB7DEB7FC01B9
:100F90008485958597FD08C02FEF3FEF358724871F
:100FA0000F90DF91CF910895CE0101960E949D048C
:100FB000019719F4898190E0F3CF8FEF9FEFF0CF85
:100FC0000F931F93CF93DF931F92CDB7DEB78C01A2
:100FD000FC018485958597FF0BC0CE0101960E9488
:100FE0009D04019771F4898190E0F80195878487C9
:100FF000F801848595850F90DF91CF911F910F9116
:1010000008958FEF9FEFF1CFFC018485958597FDC3
:101010000BC09FB7F89482E08093E9008091F200C2
:101020009FBF90E0019608959FB7F89482E0809367
:10103000E9008091F2009FBF90E008958031910512
:1010400088F08032910580F08034910578F0803806
:10105000910570F08F3F910569F060F08115924025
:1010600058F0089585E0089586E0089587E0089592
:1010700088E0089589E008958AE008951092E606D0
:101080001092E506EDEFF2E01082319686E0E53E43
:10109000F807D1F78DEF92E0909308078093070748
:1010A00010920A071092090788EE93E090930C07BC
:1010B00080930B0710920D0710920F0710920E07E6
:1010C00010921107109210070895DF92EF92FF928D
:1010D0000F931F93CF93DF937C018B01C4E6D7E07E
:1010E0008A8190E001962FE0D22ED89EB001D99E41
:1010F000700D1124888199810E948B1D99838883AA
:101100002A814CE050E0B7012D9D800D911D1124E6
:101110000E94771E8A81E881F9818D9DE00DF11D85
:101120001124168705878F5F8A83DF91CF911F91E6
:101130000F91FF90EF90DF9008954EE857E069E639
:1011400077E090E080E00C948919FC010190002088
:10115000E9F73197AF01481B590BBC0184E197E0D7
:101160000C94FD068FE491E00C94A508CF93DF93D7
:101170000E949807EC010E94B2088C0F9D1FDF911E
:10118000CF9108958F929F92AF92BF920F931F932A
:10119000CF93DF93CDB7DEB7A1970FB6F894DEBF3C
:1011A0000FBECDBF19A2423008F44AE08E010F5D98
:1011B0001F4F842E912CB12CA12CA50194010E94CB
:1011C0001B1CE62FB901CA01EA30F4F4E05DD80136
:1011D000EE938D01232B242B252B79F790E080E0D3
:1011E000109719F0CD010E94A508A1960FB6F894AA
:1011F000DEBF0FBECDBFDF91CF911F910F91BF908A
:10120000AF909F908F900895E95CE1CFCF93DF93EB
:10121000D0E0C0E0009719F00E94A508EC010E9400
:10122000B2088C0F9D1FDF91CF9108958F929F92EE
:10123000AF92BF92CF92DF92EF92FF920F931F93E4
:10124000CF93182FC0E060E070E080E09FE31C17B0
:1012500041F020E030E040E251E40E94501ACF5FBC
:10126000F6CF20E030E040E650E40E94E4196B0144
:101270007C010E94C91A4B015C014AE00E94C2082D
:101280008C01CC23C1F1C501B4010E94F81A9B0165
:10129000AC01C701B6010E94E3196B017C016EE24B
:1012A00084E197E00E948207080F191FC15018F1CE
:1012B00020E030E040E251E4C701B6010E94861B05
:1012C0004B015C010E94C91A6B01F12CE12C4AE030
:1012D000C701B6010E94C208080F191FC701B60155
:1012E0000E94F81A9B01AC01C501B4010E94E319E8
:1012F0006B017C01DBCFC801CF911F910F91FF9053
:10130000EF90DF90CF90BF90AF909F908F90089517
:1013100082E00E9416090C94B208CF93DF93682FE5
:1013200070E090E080E04AE00E94C208EC010E9478
:10133000B2088C0F9D1FDF91CF910895CF92DF925D
:10134000EF92FF92CF93DF9397FF1BC06B017C015D
:101350006DE284E197E00E948207EC01662777271F
:10136000CB016C197D098E099F094AE00E94C208D1
:101370008C0F9D1FDF91CF91FF90EF90DF90CF906A
:1013800008954AE0DF91CF91FF90EF90DF90CF90EA
:101390000C94C208CF93DF930E949E09EC010E9437
:1013A000B2088C0F9D1FDF91CF910895EF92FF92AD
:1013B0000F931F93CF93DF9300D0CDB7DEB78AEDA5
:1013C00090E00E94980786ED90E00E94980781E0E7
:1013D0000E94160980ED90E00E9498078091900786
:1013E00090919107009711F484E997E0BE016F5F37
:1013F0007F4F681B790B072E000C880B990B0E94FE
:101400009E098BEC90E00E94B6088DEB90E00E9464
:1014100098078091EF060E948D098EED90E00E9462
:10142000B60810E000E0F12CE12C809166078E15E3
:101430001F0479F074F08091640790916507800F24
:10144000911F0E9406098FEFE81AF80A015F1F4FEB
:10145000ECCF0F900F90DF91CF911F910F91FF90E4
:10146000EF900895CF93DF93BC0190E080E04AE0D5
:101470000E94C208EC010E94B2088C0F9D1FDF91F0
:10148000CF9108952FB7F8946091F3067091F40608
:101490008091F5069091F6062FBF4AE00E94C2089F
:1014A0000C94B208EF92FF920F931F93CF93DF93A8
:1014B00000D000D0CDB7DEB7082F082E000C110BDE
:1014C0001F938F9382E591E09F938F93CE010196B6
:1014D0007C019F938F930E94861EC7010E94A508DE
:1014E0000F900F900F900F900F900F908091EF063C
:1014F000882379F083E698E00E949807000F111F77
:10150000F801E45DFE4F80819181009711F00E9407
:10151000A5080E94B2080F900F900F900F90DF91D6
:10152000CF911F910F91FF90EF900895109280003E
:10153000109281001092850010928400EFE6F0E096
:1015400080818E7F80832D982E981092F0061092C5
:101550009000109291001092FA021092F9021092EB
:10156000950010929400E1E7F0E080818E7F808307
:1015700046981092F10682E00C94520A1092900064
:10158000109291001092FA021092F90210929500B6
:1015900010929400E1E7F0E080818E7F808346988E
:1015A0001092F10682E00C94520A10928000109280
:1015B00081000E943E081092850010928400EFE6A0
:1015C000F0E080818E7F80832D982E981092F00617
:1015D00082E00C94520AEF92FF920F931F93CF93E5
:1015E000DF9300D000D0CDB7DEB7082F880F110BE6
:1015F00088279927801B910B9F938F9382E591E019
:101600009F938F93CE0101967C019F938F930E94AD
:10161000861EC7010E94A5080F900F900F900F9093
:101620000F900F908091EF06882379F087E591E085
:101630000E94A508000F111FF801EE5EFE4F808189
:101640009181009711F00E94A5080E94B2080F90A6
:101650000F900F900F90DF91CF911F910F91FF90FE
:10166000EF9008958091F006811111C0809184005F
:1016700090918500892B59F45C9A68E270E080E0D3
:1016800090E00E9406065C9881E00C94520A8AE081
:101690000C94EB0A8F929F92AF92BF92CF92DF92FF
:1016A000EF92FF928091F10681110CC0809194001D
:1016B00090919500892B31F40E949D08009769F460
:1016C00081E001C08AE0FF90EF90DF90CF90BF9063
:1016D000AF909F908F900C94EB0A0E9462194B017F
:1016E0005C0188E021E3821625E79206A104B1049B
:1016F00050F79092FC028092FB020E949D08009796
:1017000009F060C09CE4C92E94E0D92EE12CF12CA4
:101710008091EF068823B1F088EC91E00E94980751
:101720004AE0C501B4010E94C20888EB91E00E9422
:1017300098074AE0C701B6010E94C20884EB91E015
:101740000E94B608F894469810929100C09A21E041
:101750002093710082EA8093900080E18093910051
:1017600083E0F694E794D794C7948A95D1F7D09202
:101770009700C09296008CE090E09093990080933F
:101780009800809196009091970001979093950012
:10179000809394002093F1061092FA021092F902BD
:1017A00081E00E94520A80919100836080939100B1
:1017B0007894FF90EF90DF90CF90BF90AF909F9084
:1017C0008F9008950E9462196B017C01DC01CB01AE
:1017D0008C549440A109B1098D39994FA105B105E7
:1017E00008F496CF89E06FCF0E949D08009761F0C2
:1017F0000E944419833028F48093EF0681E00C9412
:10180000520A8BE00C94EB0A81E0FCCFCF93DF937C
:101810008091F00681110EC0809184009091850026
:10182000892B41F48091100790911107892B39F48D
:1018300087E001C08AE0DF91CF910C94EB0A81E050
:101840000E94520A0E949D08009709F45CC00E9401
:1018500044198230E9F48091100790911107892B87
:1018600009F451C086E598E00E9498078091E5064A
:101870009091E6060E94320A8EE498E00E94980752
:101880008091100790911107DF91CF910C94320A4B
:101890008330C9F58091100790911107892B99F138
:1018A0008091090790910A079093F8028093F702BC
:1018B00010920A0710920907D0E0C0E0809110074B
:1018C00090911107C817D907B0F4BE0190E080E0ED
:1018D0004AE00E94C2088CE498E00E9498070E94A7
:1018E0004405BC01990F880B990B0E949E090E9428
:1018F000B2082196E3CF8091F7029091F80290937D
:101900000A0780930907DF91CF9108958091F0062F
:1019100081110EC08091840090918500892B41F443
:101920008091E5069091E606892B29F485E001C0B7
:101930008AE00C94EB0A8091100790911107892B93
:1019400011F487E0F6CF8091090790910A079093F0
:10195000F8028093F70290E080E00E94C704F894B8
:101960002E982D9810928100B09A81E080936F009C
:1019700082EA8093800080E1809381006091E50697
:101980007091E60690E080E00E94FA1A20E034E2CE
:1019900044EF57E40E94861B20E030E04AE754E41D
:1019A0000E94501A0E94C21A6093EF027093F002D4
:1019B0008093F1029093F2028091EF029091F002F5
:1019C000A091F102B091F20201969093870080936A
:1019D000860010920A07109209070E944405BC0174
:1019E000990F880B990B0E94FA1A20E034E244EF19
:1019F00057E40E94861B20E030E04AE754E40E944E
:101A0000501A0E94C21A1616170618061906F4F480
:101A100070938B0060938A00109289001092880066
:101A20008091860090918700019790938500809324
:101A3000840081E08093F006809181008360809330
:101A4000810081E00E94520A7894089510928B00E0
:101A500010928A0071956195710970938900609365
:101A60008800DECF8091F00681110BC08091840048
:101A700090918500892B29F40E943E0881E00C9406
:101A8000520A8AE00C94EB0A0E949D080097B9F074
:101A90000E9444199C0121503109243F314060F4D7
:101AA0000E941E08682F70E080E49FE10E94071CDE
:101AB000CB0101970C94320A83E00C94EB0A81E08D
:101AC000FCCF8091F006811113C08091F106811145
:101AD0000FC08091840090918500892B49F48091FA
:101AE000940090919500892B19F482E00C94520A8D
:101AF0008AE00C94EB0A8091F106811109C0809173
:101B0000940090919500892B19F482E00C94520A6C
:101B10008AE00C94EB0A8091F006811109C0809153
:101B2000840090918500892B19F482E00C94520A6C
:101B30008AE00C94EB0A82E00C94EB0ACF92DF92DD
:101B4000EF92FF920F931F938091F006811117C0BF
:101B50008091840090918500892B89F48091E5061D
:101B60009091E606892BA1F485E00E94EB0A1F9173
:101B70000F91FF90EF90DF90CF900C943E088AE099
:101B80001F910F91FF90EF90DF90CF900C94EB0A94
:101B900060910D0770E08091090790910A070E94FB
:101BA000F31B8091ED029091EE020197681779077F
:101BB00010F086E0DACF0E949D08009741F10E9464
:101BC00062190091E5061091E60630E020E06B0115
:101BD0007C0197FF07C0CC24DD247601C61AD70A02
:101BE000E80AF90A0C151D052E053F0524F40E948C
:101BF0003E0884E0C5CFCB010E94C70481E01F915D
:101C00000F91FF90EF90DF90CF900C94520A81E0FB
:101C1000B7CFCF93DF938091F006811176C080918A
:101C2000840090918500892B09F06FC00E949D0867
:101C3000EC01892B09F467C00E943E08CE010E9486
:101C400044199C0121503109243F314008F054C00F
:101C50009093E6068093E50681E00E94520A809107
:101C6000E5069091E6060E941E08282F8093EC025C
:101C7000682F70E080E49FE10E94071C7093EE02E1
:101C80006093ED028DEF92E0909308078093070731
:101C900010920A071092090788EE93E090930C07C0
:101CA00080930B0720930D0781E090E002C0880F1E
:101CB000991F2A95E2F7019790930F0780930E07DB
:101CC00010921107109210078091EF068823F9F007
:101CD00080E498E00E9498078091EC020E948D09B0
:101CE0008DE298E00E9498078091ED029091EE02BB
:101CF000DF91CF910C94320A0E943E0883E0DF917D
:101D0000CF910C94EB0A81E0FACF8AE0F8CFDF9113
:101D1000CF910895CF938091F10681112AC08091CF
:101D2000940090919500892B21F50E949D080097C1
:101D3000E1F00E944419C82F8CE0C930B8F481E06A
:101D40000E94520A81E08093F10681B3C295C07F60
:101D50008F70C82BC1BB61E070E080E090E00E9412
:101D600006061092F106CF91089581E0CF910C9470
:101D7000EB0A8AE0FBCF8F929F92AF92BF92CF92F5
:101D8000DF92EF92FF920F931F938091F0068111E3
:101D9000C8C18091840090918500892B09F0C1C150
:101DA0000E949D08009709F4AFC10E9462196B015F
:101DB0007C01DC01CB0181549109A04CBF4F8F37CE
:101DC0009F4FAF47B10508F01FC1D701C60141972A
:101DD000A04FBF4F8F3D9F4FAF41B10508F09EC050
:101DE00080E091E0A0E0B0E08093E8029093E90207
:101DF000A093EA02B093EB026091E8027091E902CD
:101E00008091EA029091EB020E94FA1A9B01AC01C8
:101E100060E074E284E79BE40E94501A0E94C21AB8
:101E2000A70196010E945C1CE0E4AE2EF2E4BF2EF6
:101E3000AFE0CA2ED12CE12CF12C00E010E00E9482
:101E4000981C590169017A01F7FE79C08824992408
:101E500054018C189D08AE08BF088091EF068823B6
:101E6000B1F082E791E00E949807C501B4010E9499
:101E7000CA0985E691E00E9498076091E802709196
:101E8000E9028091EA029091EB020E94CA098091D6
:101E9000E8029091E902A091EA02B091EB0210925F
:101EA0008100109285001092840010928700109299
:101EB00086002FEF3FEF309389002093880022ECBB
:101EC000209380008115F1E09F07A105B10559F528
:101ED0008CE1809381009194819491089092890083
:101EE0008092880083E091E00197F1F700C0000044
:101EF00091E0C91AD108E108F108D0928500C0929A
:101F0000840084E01F910F91FF90EF90DF90CF90BD
:101F1000BF90AF909F908F900C94520A80E094E015
:101F2000A0E0B0E061CF81159440A105B10511F4A6
:101F30008DE1CFCF8FE191E00E94B608CCCFC114E4
:101F4000D104E104F104E9F28091EF068823B1F0B5
:101F50008DE491E00E949807C701B5010E94CA096B
:101F600080E491E00E9498076091E8027091E90294
:101F70008091EA029091EB020E94CA098091E802E6
:101F80009091E902A091EA02B091EB0210928100D7
:101F900010928500109284001092870010928600A3
:101FA0002FEF3FEF30938B0020938A0022E32093A2
:101FB00080008115E1E09E07A105B105C9F48CE11F
:101FC00080938100C501222733272A193B093093CA
:101FD0008B0020938A00E3E0F1E03197F1F700C035
:101FE000000080959095909385008093840089CF20
:101FF00081159440A105B10511F48DE1E1CF8FE188
:1020000091E00E94B608DECF8091EF06882371F040
:102010008CE991E00E94980760EC7FEF8FE390E0FD
:102020000E94CA098CE891E00E94B608C701B60177
:1020300028EE33E040E050E00E943D1C69017A0147
:102040008091EF06882361F083E191E00E94980778
:10205000C701B6010E949E0980E191E00E94B60886
:10206000F894C092F302D092F402E092F502F0925A
:10207000F6021092800010928100809181008860A9
:102080008093810089EF90E090938900809388008D
:102090001092850010928400B19A80916F00826046
:1020A00080936F0081E08093F006F7FE1AC0809164
:1020B000EF06882369F080E091E00E949807662788
:1020C0007727CB016C197D098E099F090E94CA09E7
:1020D0002D9A80918100836080938100789483E0C1
:1020E00011CFC114D104E104F10499F38091EF06FA
:1020F000882341F082EF90E00E949807C701B60163
:102100000E94CA092E9AE5CF81E01F910F91FF909E
:10211000EF90DF90CF90BF90AF909F908F900C94F6
:10212000EB0A8AE0F2CFCF92DF92EF92FF920F9309
:102130001F93CF93DF93CDB7DEB760970FB6F894B8
:10214000DEBF0FBECDBFCE0101967C0180E1F7015D
:1021500011928A95E9F7670110E000E0C8010E943A
:10216000CD19F60181936F010F5F1F4F00311105EB
:10217000A9F7C7010E94060960960FB6F894DEBF62
:102180000FBECDBFDF91CF911F910F91FF90EF90C8
:10219000DF90CF900895CF92DF92EF92FF92CF938E
:1021A000DF9387E098E00E94980781E00E9416097B
:1021B0000E94B20880E098E00E9498070E94931065
:1021C00089ED97E00E94B60882EB97E00E94B6087E
:1021D00083EA97E00E94B60884E997E00E94B60877
:1021E00086E797E00E94B60886E597E00E94B60869
:1021F0008FE297E00E94B6088DEF96E00E94B60845
:1022000080EE96E00E94B60886E996E00E94B60845
:102210008AE596E00E94B60880E196E00E94B60842
:102220008BED95E00E94B6080E94B20880EC95E024
:102230000E94B60885EA95E00E94B60883E795E01B
:102240000E94B60889E495E00E94B6088DE195E009
:102250000E94B60887EE94E00E94B6088EE894E0EB
:102260000E94B60882E394E00E94980768EE73E04B
:1022700080E090E00E949E098BE294E00E94B60804
:1022800084EE93E00E94B60884E993E00E94B608C9
:102290008BE593E00E94B60888E293E00E94B608BE
:1022A0000E94B2088CE093E00E94B60880EF92E0B2
:1022B0000E94B6088DEB92E00E94B60882E992E097
:1022C0000E94B6088FE092E00E94B60881EE91E08D
:1022D0000E94B60880E298E00E94B608C4E1D1E00E
:1022E000CC24CA94DC2C7601C701B6010E949E0959
:1022F0008EE198E00E949807899199910E940609C1
:1023000081E0C81AD108E108F10883EFC8168FEF01
:10231000D806E806F80641F784E198E00E94B6087E
:10232000CEE2D1E0C12CD12C7601C394C701B60115
:102330000E949E0982E198E00E94980789919991F4
:102340000E9406098FEFC81AD80AE80AF80A85E041
:10235000C816D104E104F10449F7DF91CF91FF9051
:10236000EF90DF90CF900895DF92EF92FF920F935E
:102370001F93CF93DF93CDB7DEB760970FB6F89476
:10238000DEBF0FBECDBF8E010F5F1F4F80E1F80192
:1023900011928A95E9F70E949D087C01892B21F111
:1023A0008091EF06823070F10E948D094FE050E07D
:1023B000B701C8010E94771EC8010E940609F12CCE
:1023C000E12CF801D1908F01C7010E94CD19D816D8
:1023D00021F06D2DC7010E94D519FFEFEF1AFF0AFA
:1023E00080E1E816F10469F760960FB6F894DEBF55
:1023F0000FBECDBFDF91CF911F910F91FF90EF9056
:10240000DF9008958CEA90E00E94B608EDCF1F920D
:102410000F920FB60F9211242F933F938F939F9398
:10242000AF93BF938091F3069091F406A091F506C7
:10243000B091F6063091F20623E0230F2D3758F5C0
:102440000196A11DB11D2093F2068093F30690938F
:10245000F406A093F506B093F6068091F7069091E6
:10246000F806A091F906B091FA060196A11DB11DDA
:102470008093F7069093F806A093F906B093FA06B6
:10248000BF91AF919F918F913F912F910F900FBE70
:102490000F901F90189526E8230F0296A11DB11DDD
:1024A000D2CF1F920F920FB60F9211248F939F934A
:1024B0008091E1009091E100937F9093E10083FF90
:1024C0000FC01092E90091E09093EB001092EC00A5
:1024D00092E39093ED001092130798E09093F00030
:1024E00082FF22C093E09093E9009091F20099233B
:1024F00019F09AE39093E8009091EC06992341F04B
:102500009091EC0691509093EC06911101C05D9A68
:1025100090911207992341F0909112079150909356
:102520001207911101C0289A84FF18C08091E2001F
:102530008E7E81608093E2008091E1008F7E8093A7
:10254000E1008091ED068E7E80618093ED069F9183
:102550008F910F900FBE0F901F90189580FFF7CFAF
:102560008091E2008E7E80618093E2008091E100A4
:102570008E7E8093E1008091ED068E7E8160E5CFB6
:102580001F920F920FB60F921124CF92DF92EF920B
:10259000FF920F931F932F933F934F935F936F93EC
:1025A0007F938F939F93AF93BF93EF93FF93CF93BB
:1025B000DF93CDB7DEB76C97DEBFCDBF1092E900D9
:1025C0008091E80083FF25C068E0CE0145960E9417
:1025D000F00682EF8093E8008D8987FF39C09091E3
:1025E000E80090FFFCCF982F907609F034C19E89C7
:1025F0004F89588D2F89F88C911131C0803861F541
:102600008091EE068093F1001092F1008EEF80939E
:10261000E8006C960FB6F894DEBF0FBECDBFDF9119
:10262000CF91FF91EF91BF91AF919F918F917F914A
:102630006F915F914F913F912F911F910F91FF905B
:10264000EF90DF90CF900F900FBE0F901F901895D6
:102650009EEF9093E800C7CF1092F100D5CF913054
:1026600059F48111D3CF4130510581F68091EE06A6
:102670008D7F8093EE06CACF933049F48111C6CF87
:102680004130510519F68091EE068260F2CF953007
:1026900041F48091E80080FFFCCF20682093E300A4
:1026A000B5CF963009F0A9C00B8D1C8D22E0109299
:1026B000E9001092EA061092E906F2122EC010927A
:1026C000E8061092E7060E94BF061F8299E09983F0
:1026D000FA8291E09E8390EA98879AEF99872091F9
:1026E000E9063091EA06275F3F4F3C832B838D83B9
:1026F0001092E9001092EA061092E9061093E8069B
:102700000093E70649E050E0BE016F5F7F4F80E035
:102710000E9499060E94BF0679CF1093E8060093A5
:10272000E7060E94CD05DC0112960D911C91011562
:10273000110509F451C1D801ED91FC910480F58196
:10274000E02DBE016B5E7F4FC8010995009709F02F
:102750003EC1F80100851185EACFF3E0FF120EC0FB
:102760008F89882309F440C0823061F440E862E137
:1027700080ED98E00E946606811148CF81E2809347
:10278000EB0047CF813029F440E862E18DEB98E01F
:10279000F1CF833099F70E94CD05DC011296ED90C0
:1027A000FC908E010F5F1F4F6801E114F10479F076
:1027B000D701ED91FC910680F781E02DB801C701AA
:1027C0000995080F111DF701E084F184EECFD801BF
:1027D0001C92F60101900020E9F73197BF016C19B6
:1027E0007D0940E0C601C6CF67EA78E0FB0144916D
:1027F00050E080E80E94990609CF973009F4BECFD7
:10280000983021F481E08093F10000CF993009F0F5
:10281000FDCE837009F0B2CFE7E3F1E081E031E073
:1028200096E32191222371F08093E9003093EB002D
:10283000DF0111972C912093EC009093ED008F5FB6
:10284000873079F78EE78093EA001092EA008F894B
:1028500080931307DBCE8B8D9C8D1092E900109234
:10286000EA061092E9069093E8068093E706898DC0
:10287000811192C08E899D89913A49F4813209F083
:102880007DCF47E050E064E071E080E0B3CF91326B
:1028900009F074CF833269F48F89988DB0E0A0E09D
:1028A0008093000190930101A0930201B093030172
:1028B000ADCE803269F48091E80082FFFCCF67E002
:1028C00084E091E00E94F0068BEF8093E8009ECEBA
:1028D000823209F09BCE8F8980930B01EEEFFFE7E8
:1028E000859194918B3F9C4D51F1E0E0F8E080910F
:1028F000040190910501A0910601B0910701803B70
:102900009440A105B105F1F480910B0180FD1AC03E
:10291000EE3F8AE0F80789F587E797E791838083A0
:10292000809160008093EB0688E19BE00FB6F894FD
:10293000A895809360000FBE9093600067CEEEEF85
:10294000FAE0D5CF808191818737974709F05ECE35
:10295000A895809160008861809360008091EB066B
:1029600080936000EE3F2AE0F20789F08091FE0A32
:102970009091FF0A9183808349CE8081918187372E
:10298000980751F29093FF0A8093FE0AC5CF1092E8
:10299000FF0A1092FE0A3ACE0E94CD05DC01129683
:1029A0000D911C910115110509F4E8CED801ED91A6
:1029B000FC910190F081E02DBE016B5E7F4FC8015C
:1029C0000995811123CEF80100851185EBCF1816EA
:1029D00019060CF41BCED2CEF1E0FF12BECE6BEA8C
:1029E00078E004CF1F920F920FB60F9211242F930D
:1029F0003F938F939F938091FB029091FC022091D3
:102A0000F9023091FA0201978217930721F410928C
:102A10009900109298002091F9023091FA02809169
:102A2000FB029091FC022817390799F4109290004C
:102A3000109291001092FA021092F90210929500F1
:102A400010929400809171008E7F8093710010929B
:102A5000F1068091F9029091FA0201969093FA02A0
:102A60008093F9029F918F913F912F910F900FBE0C
:102A70000F901F9018951F920F920FB60F9211246E
:102A80002F933F934F935F936F937F938F939F9376
:102A9000AF93BF93EF93FF9360910D0770E0809128
:102AA000090790910A070E94F31B809110079091EB
:102AB00011076817790778F1109280001092810051
:102AC0002D982E98109285001092840020916F000E
:102AD0002E7F20936F001092F0062091F702309124
:102AE000F80230930A072093090701979093110782
:102AF00080931007FF91EF91BF91AF919F918F91BC
:102B00007F916F915F914F913F912F910F900FBEE9
:102B10000F901F9018950E944405BC01990F880BD7
:102B2000990B0E94FA1A20E034E244EF57E40E9425
:102B3000861B20E030E04AE754E40E94501A0E94CD
:102B4000C21A16161706180619064CF470938B0055
:102B500060938A001092890010928800CBCF109267
:102B60008B0010928A0071956195710970938900AC
:102B700060938800BFCF1F920F920FB60F9211245F
:102B80008F939F93AF93BF938091F3029091F40240
:102B9000A091F502B091F602B7FF13C08091F30245
:102BA0009091F402A091F502B091F6020196A11D58
:102BB000B11D8093F3029093F402A093F502B093B9
:102BC000F6028091F3029091F402A091F502B09187
:102BD000F602181619061A061B069CF48091F302D9
:102BE0009091F402A091F502B091F6020197A1092B
:102BF000B1098093F3029093F402A093F502B0938D
:102C0000F6028091F3029091F402A091F502B09146
:102C1000F602892B8A2B8B2B89F41092800010925C
:102C2000810080916F008D7F80936F002D982E988A
:102C300010928500109284001092F006BF91AF911F
:102C40009F918F910F900FBE0F901F901895CF936B
:102C5000DF93E4E1F7E01382128288EE93E0A0E0D4
:102C6000B0E084839583A683B78381E491E0918368
:102C700080838FEF9FEF95878487C4E6D7E0198222
:102C800018821A821C821B828AE08F831BA61AA6D6
:102C900069E571E089E697E00E94621E188619A630
:102CA000DF91CF910895789484B5826084BD84B516
:102CB000816084BD85B5826085BD85B5816085BD37
:102CC00080916E00816080936E00109281008091EF
:102CD0008100826080938100809181008160809377
:102CE00081008091800081608093800080919100BC
:102CF0008260809391008091910081608093910027
:102D0000809190008160809390008091C1008460E8
:102D10008093C1008091C10082608093C100809146
:102D2000C10081608093C1008091C3008160809365
:102D3000C3008091C00082608093C0008091C20077
:102D400081608093C20080917A00846080937A00D1
:102D500080917A00826080937A0080917A0081600D
:102D600080937A0080917A00806880937A00109234
:102D700013071092EE061092ED068091D700816045
:102D80008093D70080EA8093D80089B5806189BD9F
:102D900089B5826089BD09B400FEFDCF61E070E0B5
:102DA00080E090E00E9406068091D8008F7C8061D0
:102DB0008093D8008091E000807F8093E000809134
:102DC000E1008E7E8093E1008DE08093E200559AD1
:102DD000209A1092F1061092F0061092EF063E9A99
:102DE0004698269A2E98259A2D98549A5C98849AFB
:102DF0008C98859A8D98869A8E98879A8F9810923B
:102E00008100109280001092850010928400109230
:102E100090001092910010929500109294008FEF04
:102E20009FEF9093210780932007C0910B016AE0E8
:102E300070E080E090E00E940606CC23B1F368E8E1
:102E400079E08BE591E00E94650866ED79E08FE519
:102E500091E00E9465086BEB7EE084E691E00E94C1
:102E6000650862E37BE089E691E00E9465086AE418
:102E70007BE08FE691E00E94650862E47AE085E7F6
:102E800091E00E94650864EF7BE08DE791E00E948D
:102E900065086AE87EE083E891E00E9465086BECD3
:102EA00070E188E891E00E94650869E07EE08DE8C5
:102EB00091E00E9465086EE97DE085E991E00E945D
:102EC000650866E07CE08DE991E00E94650866E8AF
:102ED0007CE086EA91E00E94650862E37DE08EEA8C
:102EE00091E00E94650864E47DE087EB91E00E9438
:102EF000650861E67DE08EEB91E00E9465086BE776
:102F00007DE085EC91E00E9465086BE87DE08EEC49
:102F100091E00E94650866E97AE087ED91E00E9401
:102F200065086EEB7AE08CED91E00E94650865ED36
:102F30007AE083EE91E00E94650864EB71E18AEE2D
:102F400091E00E94650863E970E180EF91E00E94E2
:102F500065088BE99DE09093680780936707C0E060
:102F6000D0E084E197E00E940408181619060CF0DE
:102F700060C084E197E00E94C2070E94511E182F92
:102F800080916B07181339C04EE857E069E677E087
:102F90008CE697E00E9489197C01892BE1F0C090B2
:102FA0006607D12C0091640710916507912C812C44
:102FB0008C149D04CCF458014CE050E0B801C701DA
:102FC0000E94691E015F1F4F892B51F4D5011D9688
:102FD000ED91FC91099510926C0710928D07C1CF6D
:102FE000BFEF8B1A9B0AE4CFE0916707F091680767
:102FF000309789F3C7010995EECF812F012E000C80
:10300000990B0E944A1E892B09F4ABCFE0918D07E2
:10301000E03208F0A6CF81E08E0F80938D07F0E0BC
:10302000EC59F84F1087E82FF0E0EC59F84F108674
:1030300098CF209709F495CF0E94000092CF0F936C
:103040001F93CF93DF938230910510F482E090E0DC
:10305000E0919207F091930730E020E0B0E0A0E02B
:10306000309799F42115310509F44AC0281B390B12
:1030700024303105D8F58A819B816115710589F16C
:10308000FB0193838283FE0111C040815181028143
:10309000138148175907E0F04817590799F410971A
:1030A00061F012960C93129713961C933296CF01EF
:1030B000DF91CF911F910F91089500939207109384
:1030C0009307F4CF2115310551F04217530738F01B
:1030D000A901DB019A01BD01DF01F801C1CFEF01B8
:1030E000F9CF9093930780939207CDCFFE01E20F23
:1030F000F31F819391932250310939832883D7CFCD
:103100002091900730919107232B41F420910E01DB
:1031100030910F01309391072093900720910C017B
:1031200030910D012115310541F42DB73EB7409185
:10313000100150911101241B350BE0919007F09183
:103140009107E217F307A0F42E1B3F0B281739074E
:1031500078F0AC014E5F5F4F2417350748F04E0FF3
:103160005F1F5093910740939007819391939FCF56
:10317000F0E0E0E09CCFCF93DF930097E9F0FC0113
:10318000329713821282A0919207B0919307ED01BA
:1031900030E020E01097A1F420813181820F931F4D
:1031A00020919007309191072817390709F061C0E5
:1031B000F0939107E0939007DF91CF910895EA0192
:1031C000CE17DF07E8F54A815B819E014115510565
:1031D000B1F7E901FB83EA8349915991C40FD51FE7
:1031E000EC17FD0761F4808191810296840F951F91
:1031F000E90199838883828193819B838A83F0E0AC
:10320000E0E012968D919C9113970097B9F52D915E
:103210003C911197CD010296820F931F2091900748
:10322000309191072817390739F6309751F51092E8
:10323000930710929207B0939107A0939007BCCF89
:10324000D383C28340815181840F951FC817D9074A
:1032500061F44E5F5F4F88819981480F591F5183F8
:1032600040838A819B81938382832115310509F0F4
:10327000B0CFF0939307E09392079ECFFD01DC015E
:10328000C0CF13821282D7CFFC0188279927E894F8
:1032900021912032E9F3293010F02E30C8F32B327F
:1032A00041F02D3239F4689404C00E94C519820F90
:1032B000911D219120532A30C0F31EF490958195E1
:1032C0009F4F08951F93FC0199278827BC01E8941C
:1032D00011911032E9F3193010F01E30C8F31B328F
:1032E00051F01D3249F4689406C00E94B019610F74
:1032F000711D811D911D119110531A30B0F33EF4D0
:1033000090958095709561957F4F8F4F9F4F1F913E
:103310000895FA01A191B081009719F41097E1F096
:10332000CD01DC01CD010D90002011F4C00113C0CE
:10333000FB012191222319F02015D9F7F3CFFB01CE
:103340002191201519F41E92119606C02223C1F76F
:103350000D900020A1F7D001FA01A193B083089548
:10336000592F482F372F262F660F771F881F991F39
:10337000660F771F881F991F620F731F841F951F89
:10338000660F771F881F991F08957AE0979F902DE9
:10339000879F802D910D11240895F999FECF92BD3C
:1033A00081BDF89A992780B50895262FF999FECF07
:1033B0001FBA92BD81BD20BD0FB6F894FA9AF99A52
:1033C0000FBE019608955058BB27AA270E94FB19EB
:1033D0000C944C1B0E943E1B38F00E94451B20F0B1
:1033E00039F49F3F19F426F40C943B1B0EF4E0953E
:1033F000E7FB0C94351BE92F0E945D1B58F3BA17AD
:10340000620773078407950720F079F4A6F50C94FA
:103410007F1B0EF4E0950B2EBA2FA02D0B01B901E6
:1034200090010C01CA01A0011124FF27591B99F03A
:10343000593F50F4503E68F11A16F040A22F232F46
:10344000342F4427585FF3CF469537952795A79596
:10345000F0405395C9F77EF41F16BA0B620B730B3D
:10346000840BBAF09150A1F0FF0FBB1F661F771FAE
:10347000881FC2F70EC0BA0F621F731F841F48F463
:10348000879577956795B795F7959E3F08F0B0CFEC
:103490009395880F08F09927EE0F979587950895D3
:1034A0000E94641A0C944C1B0E94451B58F00E9409
:1034B0003E1B40F029F45F3F29F00C94351B51115D
:1034C0000C94801B0C943B1B0E945D1B68F399239A
:1034D000B1F3552391F3951B550BBB27AA27621710
:1034E0007307840738F09F5F5F4F220F331F441F1D
:1034F000AA1FA9F335D00E2E3AF0E0E832D0915051
:103500005040E695001CCAF72BD0FE2F29D0660F3D
:10351000771F881FBB1F261737074807AB07B0E880
:1035200009F0BB0B802DBF01FF2793585F4F3AF086
:103530009E3F510578F00C94351B0C94801B5F3F27
:10354000E4F3983ED4F3869577956795B795F7950C
:103550009F5FC9F7880F911D9695879597F90895F4
:10356000E1E0660F771F881FBB1F62177307840790
:10357000BA0720F0621B730B840BBA0BEE1F88F79F
:10358000E09508950E94C91A6894B1110C94801BAB
:1035900008950E94651B88F09F5798F0B92F9927CE
:1035A000B751B0F0E1F0660F771F881F991F1AF02E
:1035B000BA95C9F714C0B13091F00E947F1BB1E0F9
:1035C00008950C947F1B672F782F8827B85F39F0F8
:1035D000B93FCCF3869577956795B395D9F73EF4C7
:1035E00090958095709561957F4F8F4F9F4F08956F
:1035F000E89409C097FB3EF490958095709561958D
:103600007F4F8F4F9F4F9923A9F0F92F96E9BB2742
:103610009395F695879577956795B795F111F8CFBE
:10362000FAF4BB0F11F460FF1BC06F5F7F4F8F4F29
:103630009F4F16C0882311F096E911C0772321F01F
:103640009EE8872F762F05C0662371F096E8862FB7
:1036500070E060E02AF09A95660F771F881FDAF70E
:10366000880F9695879597F9089597F99F6780E851
:1036700070E060E008959FEF80EC089500240A94C4
:103680001616170618060906089500240A9412163D
:103690001306140605060895092E0394000C11F470
:1036A000882352F0BB0F40F4BF2B11F460FF04C01D
:1036B0006F5F7F4F8F4F9F4F089557FD9058440F76
:1036C000551F59F05F3F71F04795880F97FB991F81
:1036D00061F09F3F79F0879508951216130614063E
:1036E000551FF2CF4695F1DF08C0161617061806CB
:1036F000991FF1CF86957105610508940895E894A6
:10370000BB2766277727CB0197F908950E94991B5D
:103710000C944C1B0E943E1B38F00E94451B20F06D
:10372000952311F00C94351B0C943B1B11240C9425
:10373000801B0E945D1B70F3959FC1F3950F50E0B5
:10374000551F629FF001729FBB27F00DB11D639F53
:10375000AA27F00DB11DAA1F649F6627B00DA11DF9
:10376000661F829F2227B00DA11D621F739FB00D9F
:10377000A11D621F839FA00D611D221F749F33270F
:10378000A00D611D231F849F600D211D822F762FA8
:103790006A2F11249F5750409AF0F1F088234AF085
:1037A000EE0FFF1FBB1F661F771F881F91505040F1
:1037B000A9F79E3F510580F00C94351B0C94801B9B
:1037C0005F3FE4F3983ED4F3869577956795B79578
:1037D000F795E7959F5FC1F7FE2B880F911D969592
:1037E000879597F90895AA1BBB1B51E107C0AA1F33
:1037F000BB1FA617B70710F0A61BB70B881F991F92
:103800005A95A9F780959095BC01CD01089597FB35
:10381000072E16F4009407D077FD09D00E94F31B01
:1038200007FC05D03EF4909581959F4F08957095C3
:1038300061957F4F0895A1E21A2EAA1BBB1BFD01C3
:103840000DC0AA1FBB1FEE1FFF1FA217B307E4077F
:10385000F50720F0A21BB30BE40BF50B661F771FD7
:10386000881F991F1A9469F76095709580959095B7
:103870009B01AC01BD01CF010895052E97FB1EF4FD
:1038800000940E94541C57FD07D00E941B1C07FC8B
:1038900003D04EF40C94541C5095409530952195CE
:1038A0003F4F4F4F5F4F089590958095709561956C
:1038B0007F4F8F4F9F4F089597FB57FF0C946C1CC1
:1038C0009F938F930E946C1C6E1B7F0BAF91BF91D7
:1038D0008A0B9B0B0895E894DF93CF93FC01DB01E7
:1038E0000E94731D7F936F93E9019A01AC01BF930E
:1038F000AF933F932F93DF010E94731D26F46C1B3F
:103900007D0B820B930B9E01EB01FC010E94821D3B
:10391000AF91BF912F913F910E94821DBE01CF01B7
:10392000F9012F913F91CF91DF910895689401C0E3
:10393000E894F92FF12B12F00C94CA1CA0E0B0E02F
:10394000E4EAFCE10C943C1D092E059422F40E944B
:10395000261D112392F4F0E80F26FFEFE094F09477
:1039600000951095B094C094D094A194BF0ACF0A4A
:10397000DF0AEF0AFF0A0F0B1F0B0E94D51C07FC82
:103980000E94261DCDB7DEB7ECE00C94581D68945C
:1039900001C0E8948F929F92CF93DF930E94D51C31
:1039A000DF91CF919F908F90089588249924F401FE
:1039B000E401B0E49F93AA279A158B049C04ED05BB
:1039C000FE05CF05D007A10798F4AD2FDC2FCF2F30
:1039D000FE2FE92D982C892E982F872F762F652F73
:1039E000542F432F322F2227B85031F7BF9127C0D1
:1039F0001B2EBF91BB27220F331F441F551F661F6D
:103A0000771F881F991F881C991CEE1FFF1FCC1F52
:103A1000DD1FAA1FBB1F8A149B04EC05FD05CE0504
:103A2000DF05A007B10748F08A189B08EC09FD09DB
:103A3000CE09DF09A00BB10B21601A94E1F62EF438
:103A40009401AF01BE01CD01000C08956095709501
:103A50008095909530954095509521953F4F4F4FCB
:103A60005F4F6F4F7F4F8F4F9F4F08952F923F9221
:103A70004F925F926F927F928F929F92AF92BF927E
:103A8000CF92DF92EF92FF920F931F93CF93DF932A
:103A9000CDB7DEB7CA1BDB0B0FB6F894DEBF0FBE87
:103AA000CDBF09942A88398848885F846E847D84D4
:103AB0008C849B84AA84B984C884DF80EE80FD80D6
:103AC0000C811B81AA81B981CE0FD11D0FB6F8944C
:103AD000DEBF0FBECDBFED010895EE0FFF1F0590B5
:103AE000F491E02D0994A29FB001B39FC001A39F60
:103AF000700D811D1124911DB29F700D811D112427
:103B0000911D08950E94731D460F571FC81FD91F8E
:103B100008F431960895B0E0A0E0E1E9FDE10C94ED
:103B2000381D8C01009751F4CB010E941F188C01A5
:103B3000C801CDB7DEB7E0E10C94541DFC01E60FDF
:103B4000F71F9C0122503109E217F30708F49DC0CA
:103B5000D901CD91DC911197C617D70798F0C530E0
:103B6000D10530F3CE0104978617970708F3C61BDB
:103B7000D70B2297C193D1936D937C93CF010E9471
:103B8000BB18D6CF5B01AC1ABD0A4C018C0E9D1E32
:103B9000A0919207B0919307512C412CF12CE12C6C
:103BA000109731F5809190079091910788159905AC
:103BB00009F05CC04616570608F058C080910C0109
:103BC00090910D01009741F48DB79EB7409110017F
:103BD00050911101841B950BE817F90708F055C0A7
:103BE000F0939107E0939007F90171836083A0CF70
:103BF0008D919C91119712966C90129713967C90D0
:103C00001397A815B90559F56C0142E0C40ED11CF3
:103C1000CA14DB0420F1AC014A195B09DA011296DF
:103C2000159780F06282738251834083D9016D932E
:103C30007C93E114F10471F0D7011396FC93EE9399
:103C4000129776CF22968C0F9D1FF9019183808366
:103C5000F301EFCFF0939307E093920769CF4816F3
:103C6000590608F42C017D01D3019ACFCB010E94A3
:103C70001F187C01009749F0AE01B8010E94591E3F
:103C8000C8010E94BB18870153CF10E000E050CF5D
:103C9000803209F091110C94832080528F55D8F70F
:103CA00008959111089581568A5108F480528558DB
:103CB0000895FB01DC0102C001900D92415050407B
:103CC000D8F70895FB01DC0101900D920020E1F787
:103CD0000895FB01DC014150504030F08D9101907E
:103CE000801919F40020B9F7881B990B0895FB017E
:103CF000DC014150504048F001900D920020C9F77E
:103D000001C01D9241505040E0F70895AEE0B0E090
:103D1000ECE8FEE10C94441D0D891E8986E08C833D
:103D20001A8309838FEF9FE79E838D83AE01475EE1
:103D30005F4F6F89788DCE0101960E94A91E2F8159
:103D40003885020F131FF80110822E96E4E00C94C0
:103D5000601DABE0B0E0EFEAFEE10C94361D7C01A3
:103D60003B018A01FC0117821682838181FFC8C151
:103D7000CE0101965C01F7019381F30193FD8591DA
:103D800093FF81913F01882309F453C1853239F4AF
:103D900093FD859193FF81913F01853229F4B7010D
:103DA00090E00E949C20E7CF912C212C312CFFE148
:103DB000F31538F08B3211F190F4803209F183322F
:103DC00029F137FC3CC020ED280F2A3050F536FE93
:103DD00020C08AE0989E200D1124922E06C08D32BC
:103DE00091F0803371F7689430F8F30193FD859179
:103DF00093FF81913F018111DACF21C0689431F89E
:103E0000689432F8F2CF689433F8EFCF689434F8BE
:103E1000ECCFEAE02E9E200D1124222E689435F876
:103E2000E4CF8E3229F436FC04C1689436F8DDCF35
:103E30008C3619F4689437F8D8CF8836B1F2982FB9
:103E40009F7D95549330E0F08336A1F18337C1F123
:103E5000833509F063C02801F2E04F0E511CF801D0
:103E6000C080D180692D70E036FC02C06FEF7FEF1B
:103E7000C6010E9486204C01689437F882010AC06E
:103E80000C5F1F4FFFE3F98388248394912C650115
:103E9000E89437F833FE2DC0522C8114910471F54B
:103EA000552009F468CFB70180E290E00E949C2081
:103EB0005A94F6CFF801808189830E5F1F4FE4CFBB
:103EC0002801F2E04F0E511CF801C080D180692D0D
:103ED00070E036FC02C06FEF7FEFC6010E949120B8
:103EE0004C018201D5CFB70180E290E00E949C2076
:103EF0002A942814190409F0B0F7CECFF60137FC44
:103F0000859137FE81916F01B70190E00E949C205E
:103F100051105A94F1E08F1A9108BFCF843619F0EE
:103F2000893609F077C0F80137FE6BC06081718176
:103F3000828193810C5F1F4FF32DFF763F2E97FFF9
:103F400009C090958095709561957F4F8F4F9F4FD9
:103F5000689437F82AE030E0A5010E94CC20C82EF2
:103F6000CA188C2C432C36FE0CC0E89440F8C914B7
:103F700040F434FE05C032FC03C0F32DFE7E4F2E0C
:103F8000892C44FE95C0FE01EC0DF11D808180332B
:103F900009F087C0242D297E422E842D8870582E4A
:103FA00043FC95C040FE8FC09C2C821418F42C0C4E
:103FB000922C981844FE91C0B70180E390E00E94D3
:103FC0009C2042FE09C088E790E041FE02C088E5DF
:103FD00090E0B7010E949C20C91408F48AC0CA94DA
:103FE000D12C9FEFC91AD90ACA0CDB1CF6018291A9
:103FF0006F01B70190E00E949C20AC14BD04B1F7A2
:104000004FCF60817181072E000C880B990B0E5FDA
:104010001F4F92CFD32CE894D4F82AE030E08537B4
:1040200039F1232D297FD22E8F3601F148F48835BE
:10403000A9F0F701868197812B96E2E10C94521D3D
:10404000803749F08837A9F7D4FE02C06894D2F8C7
:1040500020E130E00DC06894D4F8F6CF34FE03C000
:10406000822F8660D82E20E132E002C028E030E0C6
:10407000F801D7FE0FC060817181828193810C5F4E
:104080001F4FA5010E94CC20C82ECA183D2CE894D1
:1040900037F867CF6081718190E080E00E5F1F4F3D
:1040A000F0CF42FC02C0839478CF8394839475CF81
:1040B000842D867809F471CFF6CFB70180E290E0C5
:1040C0000E949C2083948214C0F3512C73CF522CF5
:1040D0005818821408F46ECFF8CF842D867809F42E
:1040E0007BCF8BE241FE80E247FC8DE2B70190E09E
:1040F00071CFB70180E390E00E949C209A946CCF2E
:104100008FEF9FEF99CF992788270895FC0105909D
:10411000615070400110D8F7809590958E0F9F1FC9
:104120000895FC016150704001900110D8F780950E
:1041300090958E0F9F1F08950F931F93CF93DF933A
:10414000182F092FEB018B8181FD09C01FEF0FEFA5
:10415000812F902FDF91CF911F910F91089582FFB2
:1041600014C02E813F818C819D81281739073CF432
:10417000E881F981CF0101969983888310838E812C
:104180009F8101969F838E83E3CFE885F985812FF8
:104190000995892BA1F3DACFFA01AA27283051F12A
:1041A000203181F1E8946F936E7F6E5F7F4F8F4F68
:1041B0009F4FAF4FB1E03ED0B4E03CD0670F781FC7
:1041C000891F9A1FA11D680F791F8A1F911DA11DAC
:1041D0006A0F711D811D911DA11D20D009F46894E5
:1041E0003F912AE0269F11243019305D3193DEF68D
:1041F000CF010895462F4770405D4193B3E00FD043
:10420000C9F7F6CF462F4F70405D4A3318F0495D2D
:1042100031FD4052419302D0A9F7EACFB4E0A69510
:104220009795879577956795BA95C9F70097610532
:10423000710508959B01AC010A2E06945795479588
:1042400037952795BA95C9F7620F731F841F951F7D
:08425000A01D0895F894FFCFB2
:10425800FFFFFFFF00E100000000000000009407DE
:104268008000F601FF010C021E02300244025502D2
:104278006202700280028E029702A702B902C1028E
:10428800C402CD02DA0200C18081000000000000F3
:10429800008207FD06BE07B3070408C207E0070D42
:1042A8000A00253033640020003B00564552004484
:1042B800494147004D4F564500535441525400530D
:1042C800484F434B0047455454494D4500444542E7
:1042D800554700443138380048454C5000494E494C
:1042E80054435443004C4F414443544300515545B3
:1042F8005259435443004558454343544300464CA0
:10430800555348435443004D415843544300535474
:1043180041545553005354415455535F440053542A
:10432800415455535F54004B494C4C004B494C4C3D
:104338005F44004B494C4C5F54005345544944007A
:104348004745544944004552525F4E554C4C004530
:1043580052525F4E4F5F504152414D004552525F9D
:10436800434D445F4E4F545F464F554E44004552AF
:10437800525F4354435F42494E5F57494454480093
:104388004552525F4354435F50554C53455F57491C
:10439800445448004552525F4354435F4E4F545F64
:1043A800494E4954004552525F4354435F46554C69
:1043B8004C004552525F4354435F454D5054590099
:1043C8004552525F53484F434B5F52414E47450059
:1043D8004552525F53484F434B5F4953490045523A
:1043E800525F42555359004552525F444542554722
:1043F8005F52414E4745004552525F4348414E4E39
:10440800454C5F52414E4745004F4B5F4E554C4C13
:10441800004F4B004F4B5F5245414459004F4B5F93
:104428004D4F56455F534C4F57004F4B5F4D4F56BE
:08443800455F505245430000AE
:00000001FF
