:100000000C9431040C9459040C9459040C94590424
:100010000C9459040C9459040C9459040C945904EC
:100020000C9459040C9459040C94DD120C944C1348
:100030000C9459040C9459040C9459040C945904CC
:100040000C9459040C9448160C9459040C945904BB
:100050000C94C7150C9459040C9459040C949312E5
:100060000C9459040C9459040C9459040C9459049C
:100070000C9459040C9459040C9459040C9459048C
:100080000C9459040C9459040C9459040C947E1546
:100090000C9459040C9459040C9459040C9459046C
:1000A0000C9459040C9459040C9459044E6F742008
:1000B000617574686F72697A6564202100446562B5
:1000C0007567206C6576656C3A2000202B2B2B0021
:1000D0002052414D3A0020563A002B2B2B004176FE
:1000E00061696C61626C6520636F6D6D616E6473D4
:1000F0003A0052616D70696E672075703A20200079
:1001000052616D70696E6720646F776E3A202000CF
:100110006D730072616D705F74656D703A2000459B
:1001200052524F52206F6E6C7920323536206F72EA
:10013000203130323420737570706F7274656400D2
:10014000507265636973696F6E2D72616D70696E4F
:10015000672075703A202000507265636973696F7B
:100160006E2D72616D70696E6720646F776E3A20D4
:1001700020007573696E672072616D705F74656DC4
:10018000700050756C73652074696D65206C6F6EBE
:10019000676572207468616E20002075730020709E
:1001A000756C7365732C20657665727920005573C4
:1001B000696E672050574D2054696D657233206712
:1001C0006976696E672000443138383B78782020A2
:1001D00020202020202D2073656C6563742044311D
:1001E0003838206368616E6E656C2078782028311D
:1001F0002E2E38290053484F434B3B6E6E283B79D7
:100200007929202D204469676974696D65722073AE
:1002100074696D756C69206E756D62657220286EEB
:100220006E292040696E74657276616C20313130C0
:10023000307573204F52206164646974696F6E6118
:100240006C6C79207370656369667920696E74657A
:100250007276616C206265747765656E2070756C6E
:10026000736573202879792920696E207573202899
:100270003E313030302920004B494C4C5F44202027
:100280002020202020202D2073746F702061637443
:100290006976697479206F66206469676974696D2D
:1002A0006572005354415455535F44202020202050
:1002B000202D20636865636B2077686574686572BC
:1002C000206469676974696D65722069732072754D
:1002D0006E6E696E67002D2D2D2D2D2D2D2D2D2D42
:1002E0002D2D2D2D2D2D2D2D2D2D2D2D2D2D2D2D3E
:1002F0002D004469676974696D65722072656C616F
:1003000074656420636F6D6D616E64733A00464C72
:100310005553484354432020202020202D2072652F
:100320007365742063746320616E6420636C65611F
:1003300072206374635F64617461207175657565B3
:100340000045584543435443202020202020202DA1
:100350002065786563757465206374635F64617498
:1003600061207175657565207573696E672070729F
:1003700065636973652050574D0051554552594387
:100380005443283B797929202D2073746174757347
:10039000206F6620746865206374635F64617461B4
:1003A000207175657565202879793D3320746F203B
:1003B00067657420616C6C20656E74726965732961
:1003C00000206974656D73004C4F41444354433BB6
:1003D0007878202020202D206164642070756C7353
:1003E0006520746F206374635F646174612071754C
:1003F0006575652028787820696E206D7329202D19
:100400007878206D65616E732074656D70657261BA
:10041000747572652064656372656173652C206D07
:1004200061782000494E49544354433B787820205A
:1004300020202D20496E697469616C697A6520639A
:100440006F6D706C65782074696D6520636F75726F
:1004500073657320286374635F6461746129207716
:10046000697468206379636C6520787820696E20F0
:100470006D732028353030206D6178290053544148
:1004800052542020202020202020202D2053656E33
:10049000642034306D732054544C2070756C736537
:1004A00020746F20737461727420746865726D6F4C
:1004B0006465004D4F56453B585820202020202091
:1004C000202D204D6F76652074656D702075702F1E
:1004D000646F776E20666F72205858207573004BDA
:1004E000494C4C5F5420202020202020202D2073B8
:1004F000746F70206163746976697479206F662007
:10050000746865726D6F6465005354415455535F50
:10051000542020202020202D20636865636B2077E5
:1005200068657468657220746865726D6F646520B3
:1005300069732072756E6E696E67002D2D2D2D2DDD
:100540002D2D2D2D2D2D2D2D2D2D2D2D2D2D2D2DDB
:100550002D2D2D2D2D00546865726D6F64652072F0
:10056000656C6174656420636F6D6D616E64733A70
:100570000047455449442020202020202020202DC1
:100580002072657475726E206E616D65206F6620D5
:10059000746865726D6F696E6F2066726F6D20454D
:1005A0004550524F4D0053455449442020202020AF
:1005B000202020202D20656E746572206E657720C6
:1005C0006E616D6520666F7220746865726D6F690B
:1005D0006E6F2C207361766564207065726D616E3C
:1005E000656E746C7920696E20454550524F4D0000
:1005F0004B494C4C202020202020202020202D2042
:1006000073746F7020616C6C2061637469766974B7
:10061000792028746865726D6F646520616E64204E
:100620006469676974696D65722920005354415487
:10063000555320202020202020202D206368656332
:100640006B207768657468657220616E797468697B
:100650006E672028746865726D6F6465206F722004
:100660006469676974696D657229206973207275A0
:100670006E6E696E670048454C5020202020202077
:10068000202020202D205468697320636F6D6D61D8
:100690006E640044454255473B5858202020202096
:1006A000202D205365742064656275672073746122
:1006B00074652028303A204F4646292028313A20B8
:1006C0004F4E29290047455454494D4520202020AC
:1006D0002020202D204765742041726475696E6F5B
:1006E0002074696D6520696E206D7300444941472F
:1006F000202020202020202020202D20476574202D
:10070000646961676E6F7374696373005645522044
:10071000202020202020202020202D205072696EB3
:10072000742076657273696F6E002D2D2D2D2D2D21
:100730002D2D2D2D2D2D2D2D004D69736320636FD3
:100740006D6D616E64733A002A2A2A2A2A2A2A2A9F
:100750002A2A2A2A2A2A2A2A2A2A2A2A2A2A2A2AF9
:100760002A2A2A2A2A2A2A2A2A2A2A2A2A2A004FEE
:100770006E6C7920636F6D70617469626C6520774F
:1007800069746820557365546865726D6F696E6F22
:100790005054422E6D004E616D653A2000546865DC
:1007A000726D6F696E6F200020004F4B20636F6485
:1007B00065733A0020004572726F7220636F646542
:1007C000733A0020006E5F6374633A2000637463C1
:1007D0005F62696E5F6D733A200053746174757364
:1007E0003A205245414459002000080B0002020201
:1007F00000000904000001020200000524001001AD
:100800000524010101042402060524060001070550
:10081000810310004009040100020A0000000705DE
:10082000020240000007058302400000040309049F
:1008300012010002EF020140412336800001010253
:10084000030141726475696E6F204C4C4300417224
:100850006475696E6F204C656F6E6172646F000025
:10086000CE1611241FBECFEFDAE0DEBFCDBF12E0FF
:10087000A0E0B1E0E8EFF3E402C005900D92A03EE5
:10088000B107D9F727E0A0EEB2E001C01D92A1396F
:10089000B207E1F714E0C1E3D4E004C02197FE0100
:1008A0000E943D1EC033D107C9F70E94FA160C946E
:1008B000FA210C940000FC0180910A07882311F1B1
:1008C0003FB7F89482E08093E9002091F200822FF4
:1008D00090E01816190614F481E090E0882339F0AE
:1008E000289844E6409309074091F1004083222371
:1008F00039F02091F200211103C02BE62093E8008B
:100900003FBF08958FEF9FEF0895CF92DF92EF9250
:10091000FF922091000730910107C0900207D0900C
:100920000307F12CE12C43E0CC0CDD1CEE1CFF1C7A
:100930004A95D1F740910407420F532F511D70E0A3
:1009400060E0C416D506E606F70608F458C0F901BB
:1009500033E0F695E7953A95E1F740910507509118
:10096000060784239523A091FE06B091FF06AE0FE3
:10097000BF1F3C912770622F70E0AC0101C0440F93
:100980002A95EAF7232F242B2C9320910407260F76
:10099000372F311D29303105ACF09F012F5F3F4FBC
:1009A000E091FE06F091FF06E20FF31F208148E080
:1009B00050E0461B570B02C0969587954A95E2F783
:1009C000822B8083809104072091000730910107DA
:1009D000820F932F911D90930107809300078091C0
:1009E00007079091080701969093080780930707DF
:1009F00090E080E0FF90EF90DF90CF9008958FEF30
:100A00009FEFF8CFEF92FF920F931F93CF93DF9357
:100A1000C0910007D0910107BE0183E076956795EC
:100A20008A95E1F74091FE065091FF06FA01E60F24
:100A3000F71F80812C2F2770E22EF12C90E002C04E
:100A4000959587952A95E2F7092E000CAA0BBB0B0A
:100A50002091040730E08701020F131F09301105B0
:100A6000C4F06F5F7F4F460F571FFA01408150E07F
:100A700070E060E008E010E00E191F0904C0440FA8
:100A8000551F661F771F0A95D2F7842B952BA62B2F
:100A9000B72BE0910507F0910607AF0170E060E029
:100AA0008E239523A623B723B9016150710941E034
:100AB00050E002C0440F551F6A95E2F770E060E015
:100AC000482359236A237B23452B462B472B29F0A8
:100AD000E095F095AF018E2B952B2C0F3D1F309399
:100AE000010720930007DF91CF911F910F91FF9095
:100AF000EF9008952FB7F89483E08093E9009091E8
:100B0000E800892F807295FF04C09091F20080E484
:100B1000891B2FBF08958091F60681110DC082E0D8
:100B20008093F20684E08093F3061092F50610920B
:100B3000F40681E08093F60682EF96E008953FB7D1
:100B4000F8948091EE069091EF06A091F006B09196
:100B5000F10626B5A89B05C02F3F19F00196A11DEF
:100B6000B11D3FBFBA2FA92F982F8827BC01CD01F7
:100B7000620F711D811D911D42E0660F771F881F56
:100B8000991F4A95D1F708958F929F92AF92BF9285
:100B9000CF92DF92EF92FF924B015C010E949F0582
:100BA0006B017C010E949F056C197D098E099F09CC
:100BB000683E734081059105A8F321E0821A9108EF
:100BC000A108B10888EEC80E83E0D81EE11CF11C14
:100BD00081149104A104B10429F7FF90EF90DF90F4
:100BE000CF90BF90AF909F908F9008954091E00676
:100BF0005091E1062091DE063091DF06421753073F
:100C0000B4F49091E8009570E1F39091E80092FDC2
:100C100019C08093F1008091E0069091E106019661
:100C20008F739927892B19F48EEF8093E8008091B8
:100C3000E0069091E10601969093E1068093E0062C
:100C400081E0089580E00895EF92FF920F931F9343
:100C5000CF93DF93F82E192FE62E042F81E0860F15
:100C6000880F0E94F60583E00E94F605CF2DD12F54
:100C7000EC0EFD2EF11CCE15DF05B9F007FF13C0F9
:100C8000FE0184910E94F605182F80E00E94F6056F
:100C9000812321968111EFCFDF91CF911F910F9189
:100CA000FF90EF9008958881EDCF81E0F5CFDF923E
:100CB000EF92FF920F931F93CF93DF93D82E8A0169
:100CC000EB017B01E40EF51ECE15DF0559F0D7FED2
:100CD00012C0FE0184910E94F60521968111F4CF85
:100CE0000FEF1FEFC801DF91CF911F910F91FF9080
:100CF000EF90DF9008958881EECF0F931F93CF93ED
:100D0000DF931F92CDB7DEB782E0898342E450E0E3
:100D10006AEE77E080E80E9457060E948B05DC01AE
:100D200012960D911C910115110589F0D801ED91D4
:100D3000FC910280F381E02DBE016F5F7F4FC801FF
:100D4000099597FD04C0F80100851185ECCF8981D4
:100D50000F90DF91CF911F910F910895615030F066
:100D60002091F100FC0120830196F8CF289884E6B9
:100D70008093090708958F929F92AF92BF92CF926E
:100D8000DF92EF92FF920F931F93CF93DF936C014B
:100D90007B018A0180910B01882309F45CC080915A
:100DA0000A07882309F457C08091E40680FF05C034
:100DB0008091E00082608093E000E801B12C8AEF2E
:100DC000A82E93E0892E2AE3922E209711F4BB20BF
:100DD000D9F10E947A0581110AC0AA94AA20D9F1FA
:100DE00061E070E080E090E00E94C405EECF8C17D7
:100DF0001D0611F00CF08C2F9FB7F8948092E9003B
:100E00002091E80025FD02C09FBFDFCF282F30E0F2
:100E1000C21BD30BF701815020F041914093F100A8
:100E2000FACFE20EF31EBB2021F09092E800B12C25
:100E3000EBCF8091E80085FDE7CF9092E800BB24DE
:100E4000B394209709F3F3CF5D9884E68093E3068B
:100E5000101611063CF081E090E0F6019383828346
:100E600010E000E0C801DF91CF911F910F91FF903A
:100E7000EF90DF90CF90BF90AF909F908F900895AC
:100E8000CF93DF931F92CDB7DEB76983DC01ED917D
:100E9000FC910280F381E02D41E050E0BE016F5FE4
:100EA0007F4F09950F90DF91CF9108950F931F9376
:100EB000CF93DF938C01D0E0C0E0F801EC0FFD1F71
:100EC0006491662341F081E197E00E944007892BFD
:100ED00011F02196F2CFCE01DF91CF911F910F91AA
:100EE000089583E08093E9008091F200882319F04F
:100EF0008AE38093E80008950E947A0590E00895BF
:100F0000CF93DF931F92CDB7DEB7FC018485958523
:100F100097FD08C02FEF3FEF358724870F90DF91B3
:100F2000CF910895CE0101960E945B04019719F4B8
:100F3000898190E0F3CF8FEF9FEFF0CF0F931F9356
:100F4000CF93DF931F92CDB7DEB78C01FC01848570
:100F5000958597FF0BC0CE0101960E945B04019717
:100F600071F4898190E0F80195878487F801848580
:100F700095850F90DF91CF911F910F9108958FEF7D
:100F80009FEFF1CFFC018485958597FD0BC09FB73E
:100F9000F89482E08093E9008091F2009FBF90E096
:100FA000019608959FB7F89482E08093E9008091BC
:100FB000F2009FBF90E008951092DD061092DC06CB
:100FC000E4EFF2E01082319686E0EC3DF807D1F7CD
:100FD00084EF92E09093FF068093FE061092010743
:100FE0001092000788EE93E0909303078093020726
:100FF0001092040710920607109205071092080736
:1010000010920707089590911007981709F440C0AF
:10101000982F9F70983020F08FEF80930B070895E2
:10102000982F977021E030E001C0220F9A95EAF7DF
:10103000982F907F903D09F449C068F4903BE9F106
:10104000903C91F110920D0710920C0710920F072F
:1010500010920E07E1CF903E59F0903F99F741E38F
:1010600050E050930D0740930C0740E350E008C058
:101070004EE250E050930D0740930C074DE250E0D4
:1010800050930F0740930E0720930B078093100790
:10109000E0910C07F0910D0780910B07908166237A
:1010A000F1F0892B8083089548E250E050930D07BA
:1010B00040930C0747E250E0E3CF45E250E0509305
:1010C0000D0740930C0744E250E0DACF4BE250E0CA
:1010D00050930D0740930C074AE250E0D1CF809522
:1010E0008923E0CF80931007982F9F70983020F0CD
:1010F0008FEF80930B070895982F977021E030E0D1
:1011000001C0220F9A95EAF7807F803D09F443C021
:1011100068F4803BB9F1803C61F110920D071092A8
:101120000C0710920F0710920E07E2CF803E59F085
:10113000803F99F781E390E090930D0780930C072F
:1011400080E390E008C08EE290E090930D078093DA
:101150000C078DE290E090930F0780930E07209389
:101160000B07E0910E07F0910F078081282B208359
:10117000089588E290E090930D0780930C0787E232
:1011800090E0E9CF85E290E090930D0780930C0703
:1011900084E290E0E0CF8BE290E090930D078093A3
:1011A0000C078AE290E0D7CFDF92EF92FF920F9385
:1011B0001F93CF93DF937C018B01C1E6D7E08A8137
:1011C00090E001962FE0D22ED89EB001D99E700DEE
:1011D0001124888199810E945B1E998388832A81CA
:1011E0004CE050E0B7012D9D800D911D11240E940F
:1011F000471F8A81E881F9818D9DE00DF11D112441
:10120000168705878F5F8A83DF91CF911F910F919A
:10121000FF90EF90DF9008954BE857E066E677E0A7
:1012200090E080E00C94591AFC0101900020E9F74D
:101230003197AF01481B590BBC0181E197E00C9439
:10124000BB068FE491E00C941409CF93DF930E94C6
:101250005607EC010E9421098C0F9D1FDF91CF9151
:1012600008958F929F92AF92BF920F931F93CF9347
:10127000DF93CDB7DEB7A1970FB6F894DEBF0FBEF0
:10128000CDBF19A2423008F44AE08E010F5D1F4F16
:10129000842E912CB12CA12CA50194010E94EB1C51
:1012A000E62FB901CA01EA30F4F4E05DD801EE930B
:1012B0008D01232B242B252B79F790E080E01097CC
:1012C00019F0CD010E941409A1960FB6F894DEBF63
:1012D0000FBECDBFDF91CF911F910F91BF90AF9007
:1012E0009F908F900895E95CE1CFCF92DF92EF92CB
:1012F000FF92CF93DF9397FF1BC06B017C016DE2E0
:1013000081E197E00E944007EC0166277727CB0137
:101310006C197D098E099F094AE00E9431098C0FE2
:101320009D1FDF91CF91FF90EF90DF90CF900895B8
:101330004AE0DF91CF91FF90EF90DF90CF900C9437
:101340003109CF93DF930E947509EC010E942109B6
:101350008C0F9D1FDF91CF9108952FB7F894609166
:10136000EA067091EB068091EC069091ED062FBF96
:101370004AE00E9431090C942109CF93DF93D0E019
:10138000C0E0009719F00E941409EC010E942109A5
:101390008C0F9D1FDF91CF9108958F929F92AF92F6
:1013A000BF92CF92DF92EF92FF920F931F93CF9352
:1013B000182FC0E060E070E080E09FE31C1741F070
:1013C00020E030E040E251E40E94201BCF5FF6CFE6
:1013D00020E030E040E85FE30E94B41A6B017C013A
:1013E0000E94991B4B015C014AE00E9431098C016B
:1013F000CC23C1F1C501B4010E94C81B9B01AC0103
:10140000C701B6010E94B31A6B017C016EE281E153
:1014100097E00E944007080F191FC15018F120E003
:1014200030E040E251E4C701B6010E94561C4B0176
:101430005C010E94991B6B01F12CE12C4AE0C70171
:10144000B6010E943109080F191FC701B6010E9499
:10145000C81B9B01AC01C501B4010E94B31A6B010A
:101460007C01DBCFC801CF911F910F91FF90EF90CE
:10147000DF90CF90BF90AF909F908F900895EF92A4
:10148000FF920F931F93CF93DF9300D0CDB7DEB7BA
:101490008AED90E00E94560786ED90E00E94560784
:1014A00081E00E94CD0980ED90E00E945607809176
:1014B0008D0790918E07009711F481E997E0BE01A6
:1014C0006F5F7F4F681B790B072E000C880B990B01
:1014D0000E9475098BEC90E00E9425098DEB90E04D
:1014E0000E9456076091E60670E090E080E04AE0D6
:1014F0000E9431090E9421098EED90E00E9456075A
:1015000010E000E0F12CE12C809163078E151F04A0
:1015100079F074F08091610790916207800F911FBC
:101520000E94BD098FEFE81AF80A015F1F4FECCF48
:101530000F900F90DF91CF911F910F91FF90EF903F
:10154000089582E00E94CD090C942109EF92FF9248
:101550000F931F93CF93DF9300D000D0CDB7DEB7AA
:10156000082F082E000C110B1F938F9382E591E03A
:101570009F938F93CE0101967C019F938F930E943E
:10158000561FC7010E9414090F900F900F900F90E3
:101590000F900F908091E606882379F088EE97E00F
:1015A0000E945607000F111FF801E45DFE4F808175
:1015B0009181009711F00E9414090E9421090F9057
:1015C0000F900F900F90DF91CF911F910F91FF908F
:1015D000EF90089510928000109281001092850083
:1015E00010928400EFE6F0E080818E7F808360E0DF
:1015F00085EB0E94030860E086EB0E94030860E030
:1016000087EC0E9403081092E70610929000109257
:1016100091001092F1021092F00210929500109237
:101620009400E1E7F0E080818E7F808360E086ECCB
:101630000E9403081092E80682E00C94A60A109219
:101640009000109291001092F1021092F00210920C
:10165000950010929400E1E7F0E080818E7F808316
:1016600060E086EC0E9403081092E80682E00C9489
:10167000A60A10928000109281000E94DC0710924E
:10168000850010928400EFE6F0E080818E7F8083F9
:1016900060E085EB0E94030860E086EB0E9403088F
:1016A00060E087EC0E9403081092E70682E00C9449
:1016B000A60AEF92FF920F931F93CF93DF9300D070
:1016C00000D0CDB7DEB7082F880F110B88279927D8
:1016D000801B910B9F938F9382E591E09F938F9353
:1016E000CE0101967C019F938F930E94561FC701E4
:1016F0000E9414090F900F900F900F900F900F9071
:101700008091E606882379F087E591E00E9414092C
:10171000000F111FF801EE5EFE4F8081918100974E
:1017200011F00E9414090E9421090F900F900F9050
:101730000F90DF91CF911F910F91FF90EF9008953F
:101740008091E706811117C08091840090918500F7
:10175000892B89F461E084ED0E94030868E270E05F
:1017600080E090E00E94C40560E084ED0E940308E0
:1017700081E00C94A60A8AE00C94590B8F929F92F8
:10178000AF92BF92CF92DF92EF92FF928091E806E4
:1017900081110CC08091940090919500892B31F4B7
:1017A0000E940C09009769F481E001C08AE0FF9073
:1017B000EF90DF90CF90BF90AF909F908F900C9460
:1017C000590B0E94321A4B015C0188E021E382161A
:1017D00025E79206A104B10450F79092F30280929B
:1017E000F2020E940C09009709F063C09CE4C92E24
:1017F00094E0D92EE12CF12C8091E6068823B1F0FB
:101800008EEA91E00E9456074AE0C501B4010E94A9
:1018100031098EE991E00E9456074AE0C701B601FE
:101820000E9431098AE991E00E942509F89460E05C
:1018300086EC0E94030810929100C09A21E0209348
:10184000710082EA8093900080E18093910083E0B0
:10185000F694E794D794C7948A95D1F7D0929700DD
:10186000C09296008CE090E090939900809398004D
:1018700080919600909197000197909395008093A6
:1018800094002093E8061092F1021092F00281E099
:101890000E94A60A809191008360809391007894C1
:1018A000FF90EF90DF90CF90BF90AF909F908F9080
:1018B00008950E94321A6B017C01DC01CB018C542B
:1018C0009440A109B1098D39994FA105B10508F4DA
:1018D00093CF89E06CCF0E940C09009761F00E94C1
:1018E000141A833028F48093E60681E00C94A60A4B
:1018F0008BE00C94590B81E0FCCFCF93DF93809168
:10190000E70681118AC08091840090918500892B1F
:1019100009F083C00E940C09009721F00E94141A5C
:101920008130A1F48091DC069091DD06892B09F4C9
:1019300071C08091070790910807892B09F46AC04C
:101940008AED97E0DF91CF910C942509823039F52B
:101950008091070790910807892B09F45BC08DECF3
:1019600097E00E9456076091DC067091DD0690E0DA
:1019700080E04AE00E9431090E94210985EC97E04D
:101980000E945607609107077091080790E080E079
:101990004AE00E943109DF91CF910C9421098330F4
:1019A000C9F58091070790910807892B99F18091DB
:1019B0000007909101079093EF028093EE0210923E
:1019C000010710920007D0E0C0E0809107079091D6
:1019D0000807C817D907B0F4BE0190E080E04AE0DC
:1019E0000E94310983EC97E00E9456070E9402058D
:1019F000BC01990F880B990B0E9475090E9421095F
:101A00002196E3CF8091EE029091EF02909301072F
:101A100080930007DF91CF9108958AE0DF91CF9105
:101A20000C94590B8091E70681110EC080918400BF
:101A300090918500892B41F48091DC069091DD0620
:101A4000892B29F485E001C08AE00C94590B809120
:101A5000070790910807892B11F487E0F6CF809152
:101A60000007909101079093EF028093EE0290E0BF
:101A700080E00E948504F89460E086EB0E940308F1
:101A800060E085EB0E94030810928100B09A81E02B
:101A900080936F0082EA8093800080E180938100D0
:101AA0006091DC067091DD0690E080E00E94CA1B28
:101AB00020E034E244EF57E40E94561C20E030E07E
:101AC0004AE754E40E94201B0E94921B6093E602A6
:101AD0007093E7028093E8029093E9028091E60216
:101AE0009091E702A091E802B091E90201969093EB
:101AF00087008093860010920107109200070E94D1
:101B00000205BC01990F880B990B0E94CA1B20E0AB
:101B100034E244EF57E40E94561C20E030E04AE7EC
:101B200054E40E94201B0E94921B161617061806EA
:101B30001906F4F470938B0060938A001092890068
:101B40001092880080918600909187000197909371
:101B500085008093840081E08093E7068091810076
:101B600083608093810081E00E94A60A78940895A2
:101B700010928B0010928A00719561957109709393
:101B8000890060938800DECF8091E70681110BC049
:101B90008091840090918500892B29F40E94DC07B4
:101BA00081E00C94A60A8AE00C94590B8091E70618
:101BB000811113C08091E80681110FC080918400CB
:101BC00090918500892B49F4809194009091950023
:101BD000892B19F482E00C94A60A8AE00C94590B24
:101BE0008091E806811109C0809194009091950040
:101BF000892B19F482E00C94A60A8AE00C94590B04
:101C00008091E706811109C0809184009091850040
:101C1000892B19F482E00C94A60A8AE00C94590BE3
:101C200082E00C94590BCF92DF92EF92FF920F93C8
:101C30001F938091E706811117C0809184009091D5
:101C40008500892B89F48091DC069091DD06892B33
:101C5000A1F485E00E94590B1F910F91FF90EF9026
:101C6000DF90CF900C94DC078AE01F910F91FF90DA
:101C7000EF90DF90CF900C94590B6091040770E0C7
:101C800080910007909101070E94C31C8091E4029B
:101C90009091E5026817790710F086E0DBCF0E948B
:101CA0000C09009741F10E94321A0091DC06109154
:101CB000DD0630E020E06B017C0197FF07C0CC24FB
:101CC000DD247601C61AD70AE80AF90A0C151D05A3
:101CD0002E053F0524F40E94DC0784E0C6CFCB012B
:101CE0000E94850481E01F910F91FF90EF90DF909B
:101CF000CF900C94A60A81E0B8CF0F931F93CF9397
:101D00008091E70681117EC08091840090918500CA
:101D1000892B09F077C00E940C098C01892B09F4EA
:101D20006FC00E94DC07C8010E94141A9C01215058
:101D30003109243F314008F05BC09093DD06809369
:101D4000DC0681E00E94A60A8091DC069091DD0607
:101D500080319105A0F08032910508F441C08034B3
:101D6000910508F43FC080389105F0F18F3F91054F
:101D7000E9F1E0F18115924018F4CAE001C0C5E034
:101D80006C2F70E080E49FE10E94D71C7093E50205
:101D90006093E40284EF92E09093FF068093FE0646
:101DA000109201071092000788EE93E090930307CA
:101DB00080930207C093040781E090E002C0880F7F
:101DC000991FCA95E2F7019790930607809305073C
:101DD0001092080710920707CF911F910F91089555
:101DE000C6E0CECFC7E0CCCFC8E0CACFC9E0C8CFED
:101DF0000E94DC0783E0CF911F910F910C94590B47
:101E000081E0F9CF8AE0F7CFCF93DF938091E806A6
:101E1000811149C08091940090919500892B09F01F
:101E200042C00E940C090097E1F10E94141AEC01D3
:101E30008150883088F581E00E94A60A81E0809375
:101E4000E8066C2F617084EF0E940308BE0175954F
:101E50006795617085EF0E940308BE0175956795CF
:101E600075956795617086EF0E940308BE0123E0B7
:101E7000759567952A95E1F76F71772787EF0E942F
:101E8000030861E070E080E090E00E94C4051092D9
:101E9000E806DF91CF9108958CE0DF91CF910C940B
:101EA000590B81E0FACF8AE0F8CF8F929F92AF92E0
:101EB000BF92CF92DF92EF92FF920F931F93809188
:101EC000E7068111B8C18091840090918500892B2B
:101ED00009F0B1C10E940C09009709F49FC10E944A
:101EE000321A6B017C01DC01CB0181549109A04CB9
:101EF000BF4F8F379F4FAF47B10508F003C1D701E0
:101F0000C6014197A04FBF4F8F3D9F4FAF41B105D5
:101F100008F090C080E091E0A0E0B0E08093E002A3
:101F20009093E102A093E202B093E3026091E00299
:101F30007091E1028091E2029091E3020E94CA1B3B
:101F40009B01AC0160E074E284E79BE40E94201BEB
:101F50000E94921BA70196010E942C1DE0E4AE2E68
:101F6000F2E4BF2EAFE0CA2ED12CE12CF12C00E020
:101F700010E00E94681D590169017A01F7FE6BC0EB
:101F80008824992454018C189D08AE08BF088091BC
:101F9000E606882341F088E591E00E945607C501D6
:101FA000B4010E94A1098091E0029091E102A09108
:101FB000E202B091E302109281001092850010922B
:101FC000840010928700109286002FEF3FEF30932D
:101FD00089002093880022EC209380008115F1E095
:101FE0009F07A105B10559F58CE18093810091947B
:101FF00081949108909289008092880083E091E01A
:102000000197F1F700C0000091E0C91AD108E1087A
:10201000F108D0928500C092840084E01F910F9156
:10202000FF90EF90DF90CF90BF90AF909F908F90F8
:102030000C94A60A80E094E0A0E0B0E06FCF811598
:102040009440A105B10511F48DE1CFCF8FE191E06E
:102050000E942509CCCFC114D104E104F104E9F2B6
:102060008091E606882341F080E491E00E945607C3
:10207000C701B5010E94A1098091E0029091E1029F
:10208000A091E202B091E3021092810010928500CB
:102090001092840010928700109286002FEF3FEF7D
:1020A00030938B0020938A0022E3209380008115D7
:1020B000E1E09E07A105B105C9F48CE180938100A0
:1020C000C501222733272A193B0930938B0020931F
:1020D0008A00E3E0F1E03197F1F700C0000080955D
:1020E0009095909385008093840097CF81159440BC
:1020F000A105B10511F48DE1E1CF8FE191E00E94DE
:102100002509DECF8091E606882371F082E891E010
:102110000E94560760EC7FEF8FE390E00E94A109D8
:1021200082E791E00E942509C701B60128EE33E05D
:1021300040E050E00E940D1D69017A018091E606A1
:10214000882361F083E191E00E945607C701B60140
:102150000E94750980E191E00E942509F894C092DF
:10216000EA02D092EB02E092EC02F092ED021092C1
:1021700080001092810080918100886080938100AE
:1021800089EF90E0909389008093880010928500F9
:1021900010928400B19A80916F00826080936F00EA
:1021A00081E08093E706F7FE21C08091E606882350
:1021B00069F080E091E00E94560766277727CB01FF
:1021C0006C197D098E099F090E94A10961E087ECC5
:1021D0000E94030861E085EB0E9403088091810062
:1021E000836080938100789483E018CFC114D10478
:1021F000E104F10499F38091E606882341F082EF2F
:1022000090E00E945607C701B6010E94A10961E053
:1022100087EC0E94030861E086EBDECF81E01F912E
:102220000F91FF90EF90DF90CF90BF90AF909F9075
:102230008F900C94590B8AE0F2CFCF92DF92EF92FD
:10224000FF920F931F93CF93DF93CDB7DEB76097C5
:102250000FB6F894DEBF0FBECDBFCE0101967C0154
:1022600080E1F70111928A95E9F7670110E000E03B
:10227000C8010E949D1AF60181936F010F5F1F4FE5
:1022800000311105A9F7C7010E94BD0960960FB67C
:10229000F894DEBF0FBECDBFDF91CF911F910F919C
:1022A000FF90EF90DF90CF900895CF92DF92EF9262
:1022B000FF92CF93DF938DE997E00E94560781E06C
:1022C0000E94CD090E94210986E997E00E945607E5
:1022D0000E941D118FE697E00E94250988E497E08F
:1022E0000E94250989E397E00E9425098AE297E088
:1022F0000E9425098CE097E00E9425098CEE96E06B
:102300000E94250985EC96E00E94250983E996E064
:102310000E94250986E796E00E9425098CE296E056
:102320000E94250980EF95E00E94250986EA95E044
:102330000E94250981E795E00E9425090E94210954
:1023400086E595E00E9425098BE395E00E9425092A
:1023500089E095E00E9425098FED94E00E9425090F
:1023600083EB94E00E9425098DE794E00E94250903
:1023700084E294E00E94250988EC93E00E945607CD
:1023800068EE73E080E090E00E94750981EC93E0D4
:102390000E9425098AE793E00E94250981E493E0E1
:1023A0000E9425098EE093E00E9425090E942109E0
:1023B00082EF92E00E94250986ED92E00E942509B5
:1023C00083EA92E00E94250988E792E00E942509AD
:1023D00085EF91E00E94250987EC91E00E94250994
:1023E00086EB97E00E942509C4E1D1E0CC24CA9491
:1023F000DC2C7601C701B6010E94750984EB97E0D9
:102400000E945607899199910E94BD0981E0C81ADE
:10241000D108E108F10883EFC8168FEFD806E80667
:10242000F80641F78AEA97E00E942509CEE2D1E05A
:10243000C12CD12C7601C394C701B6010E94750945
:1024400088EA97E00E945607899199910E94BD09F8
:102450008FEFC81AD80AE80AF80A85E0C816D1042E
:10246000E104F10449F7DF91CF91FF90EF90DF9005
:10247000CF900895DF92EF92FF920F931F93CF9327
:10248000DF93CDB7DEB760970FB6F894DEBF0FBE0F
:10249000CDBF8E010F5F1F4F80E1F80111928A9529
:1024A000E9F70E940C097C01892B51F16091E60645
:1024B0006230A0F170E090E080E04AE00E943109D3
:1024C0000E9421094FE050E0B701C8010E94471F58
:1024D000C8010E94BD09F12CE12CF801D1908F01B7
:1024E000C7010E949D1AD81621F06D2DC7010E94C8
:1024F000A51AFFEFEF1AFF0A80E1E816F10469F769
:1025000060960FB6F894DEBF0FBECDBFDF91CF91BE
:102510001F910F91FF90EF90DF9008958CEA90E06B
:102520000E942509EDCF1F920F920FB60F92112432
:102530002F933F938F939F93AF93BF938091EA061E
:102540009091EB06A091EC06B091ED063091E90672
:1025500023E0230F2D3758F50196A11DB11D2093BF
:10256000E9068093EA069093EB06A093EC06B093FD
:10257000ED068091EE069091EF06A091F006B091E5
:10258000F1060196A11DB11D8093EE069093EF0612
:10259000A093F006B093F106BF91AF919F918F91F8
:1025A0003F912F910F900FBE0F901F90189526E826
:1025B000230F0296A11DB11DD2CF1F920F920FB60D
:1025C0000F9211248F939F938091E1009091E100ED
:1025D000937F9093E10083FF0FC01092E90091E098
:1025E0009093EB001092EC0092E39093ED00109228
:1025F0000A0798E09093F00082FF22C093E0909346
:10260000E9009091F200992319F09AE39093E80081
:102610009091E306992341F09091E30691509093B5
:10262000E306911101C05D9A90910907992341F049
:1026300090910907915090930907911101C0289A30
:1026400084FF18C08091E2008E7E81608093E2005A
:102650008091E1008F7E8093E1008091E4068E7E80
:1026600080618093E4069F918F910F900FBE0F9031
:102670001F90189580FFF7CF8091E2008E7E8061D9
:102680008093E2008091E1008E7E8093E100809152
:10269000E4068E7E8160E5CF1F920F920FB60F92F7
:1026A0001124CF92DF92EF92FF920F931F932F93FB
:1026B0003F934F935F936F937F938F939F93AF93CA
:1026C000BF93EF93FF93CF93DF93CDB7DEB76C97B4
:1026D000DEBFCDBF1092E9008091E80083FF25C0E6
:1026E00068E0CE0145960E94AE0682EF8093E80036
:1026F0008D8987FF39C09091E80090FFFCCF982F1B
:10270000907609F034C19E894F89588D2F89F88CB5
:10271000911131C0803861F58091E5068093F10018
:102720001092F1008EEF8093E8006C960FB6F8944B
:10273000DEBF0FBECDBFDF91CF91FF91EF91BF9173
:10274000AF919F918F917F916F915F914F913F9149
:102750002F911F910F91FF90EF90DF90CF900F90EE
:102760000FBE0F901F9018959EEF9093E800C7CF73
:102770001092F100D5CF913059F48111D3CF41306F
:10278000510581F68091E5068D7F8093E506CACFDD
:10279000933049F48111C6CF4130510519F680912B
:1027A000E5068260F2CF953041F48091E80080FF29
:1027B000FCCF20682093E300B5CF963009F0A9C084
:1027C0000B8D1C8D22E01092E9001092E106109210
:1027D000E006F2122EC01092DF061092DE060E9472
:1027E0007D061F8299E09983FA8291E09E8390EAA8
:1027F00098879AEF99872091E0063091E106275F4C
:102800003F4F3C832B838D831092E9001092E106A9
:102810001092E0061093DF060093DE0649E050E0D8
:10282000BE016F5F7F4F80E00E9457060E947D06C9
:1028300079CF1093DF060093DE060E948B05DC0142
:1028400012960D911C910115110509F451C1D80181
:10285000ED91FC910480F581E02DBE016B5E7F4F10
:10286000C8010995009709F03EC1F801008511855E
:10287000EACFF3E0FF120EC08F89882309F440C02D
:10288000823061F440E860E18EE498E00E94240622
:10289000811148CF81E28093EB0047CF813029F44A
:1028A00040E86BE082E498E0F1CF833099F70E9432
:1028B0008B05DC011296ED90FC908E010F5F1F4F8F
:1028C0006801E114F10479F0D701ED91FC910680E3
:1028D000F781E02DB801C7010995080F111DF70117
:1028E000E084F184EECFD8011C92F6010190002023
:1028F000E9F73197BF016C197D0940E0C601C6CFE9
:102900006CE278E0FB01449150E080E80E945706B9
:1029100009CF973009F4BECF983021F481E080933D
:10292000F10000CF993009F0FDCE837009F0B2CFED
:10293000E7E3F1E081E031E096E32191222371F0B9
:102940008093E9003093EB00DF0111972C912093E5
:10295000EC009093ED008F5F873079F78EE78093DE
:10296000EA001092EA008F8980930A07DBCE8B8DF4
:102970009C8D1092E9001092E1061092E00690936F
:10298000DF068093DE06898D811192C08E899D8934
:10299000913A49F4813209F07DCF47E050E064E09C
:1029A00071E080E0B3CF913209F074CF833269F4E3
:1029B0008F89988DB0E0A0E0809300019093010191
:1029C000A0930201B0930301ADCE803269F48091EF
:1029D000E80082FFFCCF67E084E091E00E94AE0651
:1029E0008BEF8093E8009ECE823209F09BCE8F89D8
:1029F00080930B01EEEFFFE7859194918B3F9C4D07
:102A000051F1E0E0F8E08091040190910501A0917E
:102A10000601B0910701803B9440A105B105F1F496
:102A200080910B0180FD1AC0EE3F8AE0F80789F51E
:102A300087E797E791838083809160008093E20627
:102A400088E19BE00FB6F894A895809360000FBED4
:102A50009093600067CEEEEFFAE0D5CF8081918150
:102A60008737974709F05ECEA8958091600088610E
:102A7000809360008091E20680936000EE3F2AE040
:102A8000F20789F08091FE0A9091FF0A918380837A
:102A900049CE808191818737980751F29093FF0A40
:102AA0008093FE0AC5CF1092FF0A1092FE0A3ACE1A
:102AB0000E948B05DC0112960D911C9101151105E8
:102AC00009F4E8CED801ED91FC910190F081E02D60
:102AD000BE016B5E7F4FC8010995811123CEF801BD
:102AE00000851185EBCF181619060CF41BCED2CE3B
:102AF000F1E0FF12BECE60E378E004CF1F920F92A8
:102B00000FB60F9211242F933F938F939F93809131
:102B1000F2029091F3022091F0023091F1020197BC
:102B20008217930721F41092990010929800209137
:102B3000F0023091F1028091F2029091F302281795
:102B4000390799F410929000109291001092F102BE
:102B50001092F002109295001092940080917100F2
:102B60008E7F809371001092E8068091F002909120
:102B7000F10201969093F1028093F0029F918F9160
:102B80003F912F910F900FBE0F901F9018951F929D
:102B90000F920FB60F9211242F933F934F935F9391
:102BA0006F937F938F939F93AF93BF93EF93FF9315
:102BB0006091040770E080910007909101070E94E6
:102BC000C31C80910707909108076817790780F167
:102BD000109280001092810060E085EB0E94030853
:102BE00060E086EB0E94030810928500109284003A
:102BF00080916F008E7F80936F001092E706809126
:102C0000EE029091EF029093010780930007FF91ED
:102C1000EF91BF91AF919F918F917F916F915F9154
:102C20004F913F912F910F900FBE0F901F901895CD
:102C30000E940205BC01990F880B990B0E94CA1BC8
:102C400020E034E244EF57E40E94561C20E030E0DC
:102C50004AE754E40E94201B0E94921B1616170696
:102C6000180619064CF470938B0060938A0010923A
:102C7000890010928800CBCF10928B0010928A00AE
:102C80007195619571097093890060938800BFCF39
:102C90001F920F920FB60F9211242F933F934F93D1
:102CA0005F936F937F938F939F93AF93BF93EF93B4
:102CB000FF938091EA029091EB02A091EC02B09117
:102CC000ED02B7FF13C08091EA029091EB02A09150
:102CD000EC02B091ED020196A11DB11D8093EA02B4
:102CE0009093EB02A093EC02B093ED028091EA0284
:102CF0009091EB02A091EC02B091ED02181619062A
:102D00001A061B069CF48091EA029091EB02A091B6
:102D1000EC02B091ED020197A109B1098093EA029A
:102D20009093EB02A093EC02B093ED028091EA0243
:102D30009091EB02A091EC02B091ED02892B8A2BCD
:102D40008B2BD9F4109280001092810080916F003B
:102D50008D7F80936F0060E085EB0E94030860E048
:102D600086EB0E94030860E087EC0E940308109243
:102D70008500109284001092E706FF91EF91BF91B9
:102D8000AF919F918F917F916F915F914F913F9103
:102D90002F910F900FBE0F901F901895CF93DF9338
:102DA000E1E1F7E01382128288EE93E0A0E0B0E068
:102DB00084839583A683B78381E491E091838083A4
:102DC0008FEF9FEF95878487C1E6D7E0198218823D
:102DD0001A821C821B828AE08F831BA61AA669E5D1
:102DE00071E086E697E00E94321F188619A6DF91EF
:102DF000CF910895789484B5826084BD84B5816054
:102E000084BD85B5826085BD85B5816085BD8091B5
:102E10006E00816080936E0010928100809181002D
:102E20008260809381008091810081608093810025
:102E30008091800081608093800080919100826009
:102E400080939100809191008160809391008091A6
:102E500090008160809390008091C1008460809395
:102E6000C1008091C10082608093C1008091C10047
:102E700081608093C1008091C30081608093C30012
:102E80008091C00082608093C0008091C200816008
:102E90008093C20080917A00846080937A00809150
:102EA0007A00826080937A0080917A0081608093BA
:102EB0007A0080917A00806880937A0010920A07E5
:102EC0001092E5061092E4068091D700816080930D
:102ED000D70080EA8093D80089B5806189BD89B523
:102EE000826089BD09B400FEFDCF61E070E080E042
:102EF00090E00E94C4058091D8008F7C806180930F
:102F0000D8008091E000807F8093E0008091E10014
:102F10008E7E8093E1008DE08093E200559A209AA6
:102F20001092E8061092E7061092E60686EC0E94E0
:102F3000720860E086EC0E94030886EB0E9472082B
:102F400060E086EB0E94030885EB0E94720860E057
:102F500085EB0E94030884ED0E94720860E084ED16
:102F60000E94030887EC0E94720860E087EC0E94D0
:102F7000030884EF0E94720860E084EF0E94030857
:102F800085EF0E94720860E085EF0E94030886EFDB
:102F90000E94720860E086EF0E94030887EF0E949B
:102FA000720860E087EF0E9403081092810010927F
:102FB0008000109285001092840010929000109270
:102FC000910010929500109294008FEF9FEF9093D4
:102FD0001E0780931D07C0910B016AE070E080E03E
:102FE00090E00E94C405CC23B1F361EA7AE08BE55E
:102FF00091E00E94D4086FE37AE08FE591E00E94AF
:10300000D40865E57FE084E691E00E94D40860EA98
:103010007BE089E691E00E94D4086EEB7BE08FE6CE
:1030200091E00E94D4086DEA79E085E791E00E9482
:10303000D4086BE67CE08DE791E00E94D40864E060
:103040007FE083E891E00E94D40865E571E188E8BB
:1030500091E00E94D4086DE77EE08DE891E00E9447
:10306000D40863E17EE085E991E00E94D4086DE731
:103070007CE08DE991E00E94D40862E17DE086EA7F
:1030800091E00E94D40864EC7DE08EEA91E00E9419
:10309000D40866ED7DE087EB91E00E94D40860EFF4
:1030A0007DE08EEB91E00E94D40860E07EE087EC4A
:1030B00091E00E94D4086AEE7AE080ED91E00E94EF
:1030C000D4086FE17BE085ED91E00E94D40869E3CC
:1030D0007BE08CED91E00E94D4086AE372E183EE1C
:1030E00091E00E94D4086DE171E189EE91E00E94C7
:1030F000D40880E19EE09093650780936407C0E068
:10310000D0E081E197E00E94C207181619060CF082
:1031100060C081E197E00E9480070E94211F182F64
:1031200080916807181339C04BE857E066E677E0EE
:1031300089E697E00E94591A7C01892BE1F0C09042
:103140006307D12C0091610710916207912C812CAB
:103150008C149D04CCF458014CE050E0B801C70138
:103160000E94391F015F1F4F892B51F4D5011D9615
:10317000ED91FC9109951092690710928A07C1CFD1
:10318000BFEF8B1A9B0AE4CFE0916407F0916507CB
:10319000309789F3C7010995EECF812F012E000CDE
:1031A000990B0E941A1F892B09F4ABCFE0918A0773
:1031B000E03208F0A6CF81E08E0F80938A07F0E01E
:1031C000EF59F84F1087E82FF0E0EF59F84F1086CD
:1031D00098CF209709F495CF0E94000092CF0F93CB
:1031E0001F93CF93DF938230910510F482E090E03B
:1031F000E0918F07F091900730E020E0B0E0A0E090
:10320000309799F42115310509F44AC0281B390B70
:1032100024303105D8F58A819B816115710589F1CA
:10322000FB0193838283FE0111C0408151810281A1
:10323000138148175907E0F04817590799F4109778
:1032400061F012960C93129713961C933296CF014D
:10325000DF91CF911F910F91089500938F071093E5
:103260009007F4CF2115310551F04217530738F07C
:10327000A901DB019A01BD01DF01F801C1CFEF0116
:10328000F9CF9093900780938F07CDCFFE01E20F87
:10329000F31F819391932250310939832883D7CF2B
:1032A00020918D0730918E07232B41F420910E0140
:1032B00030910F0130938E0720938D0720910C01E0
:1032C00030910D012115310541F42DB73EB74091E4
:1032D000100150911101241B350BE0918D07F091E5
:1032E0008E07E217F307A0F42E1B3F0B28173907B0
:1032F00078F0AC014E5F5F4F2417350748F04E0F52
:103300005F1F50938E0740938D07819391939FCFBA
:10331000F0E0E0E09CCFCF93DF930097E9F0FC0171
:10332000329713821282A0918F07B0919007ED011E
:1033300030E020E01097A1F420813181820F931FAB
:1033400020918D0730918E072817390709F061C049
:10335000F0938E07E0938D07DF91CF910895EA01F6
:10336000CE17DF07E8F54A815B819E0141155105C3
:10337000B1F7E901FB83EA8349915991C40FD51F45
:10338000EC17FD0761F4808191810296840F951FEF
:10339000E90199838883828193819B838A83F0E00A
:1033A000E0E012968D919C9113970097B9F52D91BD
:1033B0003C911197CD010296820F931F20918D07AA
:1033C00030918E072817390739F6309751F510924A
:1033D000900710928F07B0938E07A0938D07BCCFF4
:1033E000D383C28340815181840F951FC817D907A9
:1033F00061F44E5F5F4F88819981480F591F518357
:1034000040838A819B81938382832115310509F052
:10341000B0CFF0939007E0938F079ECFFD01DC01C2
:10342000C0CF13821282D7CFFC0188279927E89456
:1034300021912032E9F3293010F02E30C8F32B32DD
:1034400041F02D3239F4689404C00E94951A820F1D
:10345000911D219120532A30C0F31EF4909581953F
:103460009F4F08951F93FC0199278827BC01E8947A
:1034700011911032E9F3193010F01E30C8F31B32ED
:1034800051F01D3249F4689406C00E94801A610F01
:10349000711D811D911D119110531A30B0F33EF42E
:1034A00090958095709561957F4F8F4F9F4F1F919D
:1034B0000895FA01A191B081009719F41097E1F0F5
:1034C000CD01DC01CD010D90002011F4C00113C02D
:1034D000FB012191222319F02015D9F7F3CFFB012D
:1034E0002191201519F41E92119606C02223C1F7CE
:1034F0000D900020A1F7D001FA01A193B0830895A7
:10350000592F482F372F262F660F771F881F991F97
:10351000660F771F881F991F620F731F841F951FE7
:10352000660F771F881F991F08957AE0979F902D47
:10353000879F802D910D11240895F999FECF92BD9A
:1035400081BDF89A992780B50895262FF999FECF65
:103550001FBA92BD81BD20BD0FB6F894FA9AF99AB0
:103560000FBE019608955058BB27AA270E94CB1A78
:103570000C941C1C0E940E1C38F00E94151C20F09C
:1035800039F49F3F19F426F40C940B1C0EF4E095CB
:10359000E7FB0C94051CE92F0E942D1C58F3BA1769
:1035A000620773078407950720F079F4A6F50C9459
:1035B0004F1C0EF4E0950B2EBA2FA02D0B01B90174
:1035C00090010C01CA01A0011124FF27591B99F099
:1035D000593F50F4503E68F11A16F040A22F232FA5
:1035E000342F4427585FF3CF469537952795A795F5
:1035F000F0405395C9F77EF41F16BA0B620B730B9C
:10360000840BBAF09150A1F0FF0FBB1F661F771F0C
:10361000881FC2F70EC0BA0F621F731F841F48F4C1
:10362000879577956795B795F7959E3F08F0B0CF4A
:103630009395880F08F09927EE0F97958795089531
:103640000E94341B0C941C1C0E94151C58F00E94F4
:103650000E1C40F029F45F3F29F00C94051C511119
:103660000C94501C0C940B1C0E942D1C68F3992385
:10367000B1F3552391F3951B550BBB27AA2762176E
:103680007307840738F09F5F5F4F220F331F441F7B
:10369000AA1FA9F335D00E2E3AF0E0E832D09150AF
:1036A0005040E695001CCAF72BD0FE2F29D0660F9C
:1036B000771F881FBB1F261737074807AB07B0E8DF
:1036C00009F0BB0B802DBF01FF2793585F4F3AF0E5
:1036D0009E3F510578F00C94051C0C94501C5F3FE4
:1036E000E4F3983ED4F3869577956795B795F7956B
:1036F0009F5FC9F7880F911D9695879597F9089553
:10370000E1E0660F771F881FBB1F621773078407EE
:10371000BA0720F0621B730B840BBA0BEE1F88F7FD
:10372000E09508950E94991B6894B1110C94501C67
:1037300008950E94351C88F09F5798F0B92F99275B
:10374000B751B0F0E1F0660F771F881F991F1AF08C
:10375000BA95C9F714C0B13091F00E944F1CB1E086
:1037600008950C944F1C672F782F8827B85F39F085
:10377000B93FCCF3869577956795B395D9F73EF425
:1037800090958095709561957F4F8F4F9F4F0895CD
:10379000E89409C097FB3EF49095809570956195EB
:1037A0007F4F8F4F9F4F9923A9F0F92F96E9BB27A1
:1037B0009395F695879577956795B795F111F8CF1D
:1037C000FAF4BB0F11F460FF1BC06F5F7F4F8F4F88
:1037D0009F4F16C0882311F096E911C0772321F07E
:1037E0009EE8872F762F05C0662371F096E8862F16
:1037F00070E060E02AF09A95660F771F881FDAF76D
:10380000880F9695879597F9089597F99F6780E8AF
:1038100070E060E008959FEF80EC089500240A9422
:103820001616170618060906089500240A9412169B
:103830001306140605060895092E0394000C11F4CE
:10384000882352F0BB0F40F4BF2B11F460FF04C07B
:103850006F5F7F4F8F4F9F4F089557FD9058440FD4
:10386000551F59F05F3F71F04795880F97FB991FDF
:1038700061F09F3F79F0879508951216130614069C
:10388000551FF2CF4695F1DF08C016161706180629
:10389000991FF1CF86957105610508940895E89404
:1038A000BB2766277727CB0197F908950E94691CEB
:1038B0000C941C1C0E940E1C38F00E94151C20F059
:1038C000952311F00C94051C0C940B1C11240C94E2
:1038D000501C0E942D1C70F3959FC1F3950F50E072
:1038E000551F629FF001729FBB27F00DB11D639FB2
:1038F000AA27F00DB11DAA1F649F6627B00DA11D58
:10390000661F829F2227B00DA11D621F739FB00DFD
:10391000A11D621F839FA00D611D221F749F33276D
:10392000A00D611D231F849F600D211D822F762F06
:103930006A2F11249F5750409AF0F1F088234AF0E3
:10394000EE0FFF1FBB1F661F771F881F915050404F
:10395000A9F79E3F510580F00C94051C0C94501C57
:103960005F3FE4F3983ED4F3869577956795B795D6
:10397000F795E7959F5FC1F7FE2B880F911D9695F0
:10398000879597F90895AA1BBB1B51E107C0AA1F91
:10399000BB1FA617B70710F0A61BB70B881F991FF0
:1039A0005A95A9F780959095BC01CD01089597FB94
:1039B000072E16F4009407D077FD09D00E94C31C8F
:1039C00007FC05D03EF4909581959F4F0895709522
:1039D00061957F4F0895A1E21A2EAA1BBB1BFD0122
:1039E0000DC0AA1FBB1FEE1FFF1FA217B307E407DE
:1039F000F50720F0A21BB30BE40BF50B661F771F36
:103A0000881F991F1A9469F7609570958095909515
:103A10009B01AC01BD01CF010895052E97FB1EF45B
:103A200000940E94241D57FD07D00E94EB1C07FC48
:103A300003D04EF40C94241D50954095309521955B
:103A40003F4F4F4F5F4F08959095809570956195CA
:103A50007F4F8F4F9F4F089597FB57FF0C943C1D4E
:103A60009F938F930E943C1D6E1B7F0BAF91BF9164
:103A70008A0B9B0B0895E894DF93CF93FC01DB0145
:103A80000E94431E7F936F93E9019A01AC01BF939B
:103A9000AF933F932F93DF010E94431E26F46C1BCC
:103AA0007D0B820B930B9E01EB01FC010E94521EC9
:103AB000AF91BF912F913F910E94521EBE01CF0145
:103AC000F9012F913F91CF91DF910895689401C042
:103AD000E894F92FF12B12F00C949A1DA0E0B0E0BD
:103AE000E4E7FDE10C940C1E092E059422F40E94DB
:103AF000F61D112392F4F0E80F26FFEFE094F09406
:103B000000951095B094C094D094A194BF0ACF0AA8
:103B1000DF0AEF0AFF0A0F0B1F0B0E94A51D07FC0F
:103B20000E94F61DCDB7DEB7ECE00C94281E689419
:103B300001C0E8948F929F92CF93DF930E94A51DBE
:103B4000DF91CF919F908F90089588249924F4015C
:103B5000E401B0E49F93AA279A158B049C04ED0519
:103B6000FE05CF05D007A10798F4AD2FDC2FCF2F8E
:103B7000FE2FE92D982C892E982F872F762F652FD1
:103B8000542F432F322F2227B85031F7BF9127C02F
:103B90001B2EBF91BB27220F331F441F551F661FCB
:103BA000771F881F991F881C991CEE1FFF1FCC1FB1
:103BB000DD1FAA1FBB1F8A149B04EC05FD05CE0563
:103BC000DF05A007B10748F08A189B08EC09FD093A
:103BD000CE09DF09A00BB10B21601A94E1F62EF497
:103BE0009401AF01BE01CD01000C08956095709560
:103BF0008095909530954095509521953F4F4F4F2A
:103C00005F4F6F4F7F4F8F4F9F4F08952F923F927F
:103C10004F925F926F927F928F929F92AF92BF92DC
:103C2000CF92DF92EF92FF920F931F93CF93DF9388
:103C3000CDB7DEB7CA1BDB0B0FB6F894DEBF0FBEE5
:103C4000CDBF09942A88398848885F846E847D8432
:103C50008C849B84AA84B984C884DF80EE80FD8034
:103C60000C811B81AA81B981CE0FD11D0FB6F894AA
:103C7000DEBF0FBECDBFED010895EE0FFF1F059013
:103C8000F491E02D0994A29FB001B39FC001A39FBE
:103C9000700D811D1124911DB29F700D811D112485
:103CA000911D08950E94431E460F571FC81FD91F1C
:103CB00008F431960895B0E0A0E0E1E6FEE10C944E
:103CC000081E8C01009751F4CB010E94EF188C0163
:103CD000C801CDB7DEB7E0E10C94241EFC01E60F6D
:103CE000F71F9C0122503109E217F30708F49DC029
:103CF000D901CD91DC911197C617D70798F0C5303F
:103D0000D10530F3CE0104978617970708F3C61B39
:103D1000D70B2297C193D1936D937C93CF010E94CF
:103D20008B19D6CF5B01AC1ABD0A4C018C0E9D1EBF
:103D3000A0918F07B0919007512C412CF12CE12CD0
:103D4000109731F580918D0790918E078815990510
:103D500009F05CC04616570608F058C080910C0167
:103D600090910D01009741F48DB79EB740911001DD
:103D700050911101841B950BE817F90708F055C005
:103D8000F0938E07E0938D07F90171836083A0CFD4
:103D90008D919C91119712966C90129713967C902E
:103DA0001397A815B90559F56C0142E0C40ED11C52
:103DB000CA14DB0420F1AC014A195B09DA0112963E
:103DC000159780F06282738251834083D9016D938D
:103DD0007C93E114F10471F0D7011396FC93EE93F8
:103DE000129776CF22968C0F9D1FF90191838083C5
:103DF000F301EFCFF0939007E0938F0769CF481658
:103E0000590608F42C017D01D3019ACFCB010E9401
:103E1000EF187C01009749F0AE01B8010E94291FFC
:103E2000C8010E948B19870153CF10E000E050CFEA
:103E3000803209F091110C94532180528F55D8F79C
:103E400008959111089581568A5108F48052855839
:103E50000895FB01DC0102C001900D9241505040D9
:103E6000D8F70895FB01DC0101900D920020E1F7E5
:103E70000895FB01DC014150504030F08D910190DC
:103E8000801919F40020B9F7881B990B0895FB01DC
:103E9000DC014150504048F001900D920020C9F7DC
:103EA00001C01D9241505040E0F70895AEE0B0E0EF
:103EB000ECE5FFE10C94141E0D891E8986E08C83CD
:103EC0001A8309838FEF9FE79E838D83AE01475E40
:103ED0005F4F6F89788DCE0101960E94791F2F81E7
:103EE0003885020F131FF80110822E96E4E00C941F
:103EF000301EABE0B0E0EFE7FFE10C94061E7C0162
:103F00003B018A01FC0117821682838181FFC8C1AF
:103F1000CE0101965C01F7019381F30193FD859138
:103F200093FF81913F01882309F453C1853239F40D
:103F300093FD859193FF81913F01853229F4B7016B
:103F400090E00E946C21E7CF912C212C312CFFE1D5
:103F5000F31538F08B3211F190F4803209F183328D
:103F600029F137FC3CC020ED280F2A3050F536FEF1
:103F700020C08AE0989E200D1124922E06C08D321A
:103F800091F0803371F7689430F8F30193FD8591D7
:103F900093FF81913F018111DACF21C0689431F8FC
:103FA000689432F8F2CF689433F8EFCF689434F81D
:103FB000ECCFEAE02E9E200D1124222E689435F8D5
:103FC000E4CF8E3229F436FC04C1689436F8DDCF94
:103FD0008C3619F4689437F8D8CF8836B1F2982F18
:103FE0009F7D95549330E0F08336A1F18337C1F182
:103FF000833509F063C02801F2E04F0E511CF8012F
:10400000C080D180692D70E036FC02C06FEF7FEF79
:10401000C6010E9456214C01689437F882010AC0FB
:104020000C5F1F4FFFE3F98388248394912C650173
:10403000E89437F833FE2DC0522C8114910471F5A9
:10404000552009F468CFB70180E290E00E946C210E
:104050005A94F6CFF801808189830E5F1F4FE4CF19
:104060002801F2E04F0E511CF801C080D180692D6B
:1040700070E036FC02C06FEF7FEFC6010E94612145
:104080004C018201D5CFB70180E290E00E946C2103
:104090002A942814190409F0B0F7CECFF60137FCA2
:1040A000859137FE81916F01B70190E00E946C21EC
:1040B00051105A94F1E08F1A9108BFCF843619F04D
:1040C000893609F077C0F80137FE6BC060817181D5
:1040D000828193810C5F1F4FF32DFF763F2E97FF58
:1040E00009C090958095709561957F4F8F4F9F4F38
:1040F000689437F82AE030E0A5010E949C21C82E80
:10410000CA188C2C432C36FE0CC0E89440F8C91415
:1041100040F434FE05C032FC03C0F32DFE7E4F2E6A
:10412000892C44FE95C0FE01EC0DF11D8081803389
:1041300009F087C0242D297E422E842D8870582EA8
:1041400043FC95C040FE8FC09C2C821418F42C0CAC
:10415000922C981844FE91C0B70180E390E00E9431
:104160006C2142FE09C088E790E041FE02C088E56C
:1041700090E0B7010E946C21C91408F48AC0CA9467
:10418000D12C9FEFC91AD90ACA0CDB1CF601829107
:104190006F01B70190E00E946C21AC14BD04B1F72F
:1041A0004FCF60817181072E000C880B990B0E5F39
:1041B0001F4F92CFD32CE894D4F82AE030E0853713
:1041C00039F1232D297FD22E8F3601F148F488351D
:1041D000A9F0F701868197812B96E2E10C94221ECB
:1041E000803749F08837A9F7D4FE02C06894D2F826
:1041F00020E130E00DC06894D4F8F6CF34FE03C05F
:10420000822F8660D82E20E132E002C028E030E024
:10421000F801D7FE0FC060817181828193810C5FAC
:104220001F4FA5010E949C21C82ECA183D2CE8945E
:1042300037F867CF6081718190E080E00E5F1F4F9B
:10424000F0CF42FC02C0839478CF8394839475CFDF
:10425000842D867809F471CFF6CFB70180E290E023
:104260000E946C2183948214C0F3512C73CF522C82
:104270005818821408F46ECFF8CF842D867809F48C
:104280007BCF8BE241FE80E247FC8DE2B70190E0FC
:1042900071CFB70180E390E00E946C219A946CCFBB
:1042A0008FEF9FEF99CF992788270895FC010590FC
:1042B000615070400110D8F7809590958E0F9F1F28
:1042C0000895FC016150704001900110D8F780956D
:1042D00090958E0F9F1F08950F931F93CF93DF9399
:1042E000182F092FEB018B8181FD09C01FEF0FEF04
:1042F000812F902FDF91CF911F910F91089582FF11
:1043000014C02E813F818C819D81281739073CF490
:10431000E881F981CF0101969983888310838E818A
:104320009F8101969F838E83E3CFE885F985812F56
:104330000995892BA1F3DACFFA01AA27283051F188
:10434000203181F1E8946F936E7F6E5F7F4F8F4FC6
:104350009F4FAF4FB1E03ED0B4E03CD0670F781F25
:10436000891F9A1FA11D680F791F8A1F911DA11D0A
:104370006A0F711D811D911DA11D20D009F4689443
:104380003F912AE0269F11243019305D3193DEF6EB
:10439000CF010895462F4770405D4193B3E00FD0A1
:1043A000C9F7F6CF462F4F70405D4A3318F0495D8C
:1043B00031FD4052419302D0A9F7EACFB4E0A6956F
:1043C0009795879577956795BA95C9F70097610591
:1043D000710508959B01AC010A2E069457954795E7
:1043E00037952795BA95C9F7620F731F841F951FDC
:0843F000A01D0895F894FFCF11
:1043F800FFFFFFFF00E10000000000000000910740
:104408008000EF01F8010502170229023D024E0261
:104418005B026902790287029002A002B202BA0224
:10442800BD02C602D30200C1808100000000000066
:10443800004007BB067C077107C20780079E070D6F
:104448000A00253033640020003B005645520044E2
:10445800494147004D4F564500535441525400536B
:10446800484F434B0047455454494D450044454245
:10447800554700443138380048454C5000494E49AA
:1044880054435443004C4F41444354430051554511
:104498005259435443004558454343544300464CFE
:1044A80055534843544300535441545553005354AF
:1044B800415455535F44005354415455535F54007D
:1044C8004B494C4C004B494C4C5F44004B494C4CBD
:1044D8005F540053455449440047455449440045F6
:1044E80052525F4E554C4C004552525F4E4F5F50F2
:1044F8004152414D004552525F434D445F4E4F5427
:104508005F464F554E44004552525F4354435F4205
:10451800494E5F5749445448004552525F435443FB
:104528005F50554C53455F574944544800455252D3
:104538005F4354435F4E4F545F494E4954004552C0
:10454800525F4354435F46554C4C004552525F43BB
:1045580054435F454D505459004552525F53484F9C
:10456800434B5F52414E4745004552525F53484FB7
:10457800434B5F495349004552525F4255535900D6
:104588004552525F44454255475F52414E474500A8
:104598004552525F4348414E4E454C5F52414E474B
:1045A80045004F4B5F4E554C4C004F4B004F4B5FF7
:1045B8005245414459004F4B5F4D4F56455F534C50
:1045C8004F57004F4B5F4D4F56455F505245430084
:00000001FF
